:020000041000EA
:1000000000B5324B212058609868022188439860DF
:10001000D860186158612E4B002199600221596106
:100020000121F02299502B49196001219960352056
:1000300000F044F80222904214D00621196600F024
:1000400034F8196E01211966002018661A6600F04E
:100050002CF8196E196E196E052000F02FF8012189
:100060000842F9D1002199601B49196000215960AB
:100070001A491B48016001219960EB211966A021F2
:10008000196600F012F800219960164914480160C1
:100090000121996001BC002800D000471248134993
:1000A000086003C880F30888084703B5996A0420EC
:1000B0000142FBD001200142F8D103BD02B5186610
:1000C0001866FFF7F2FF186E186E02BD00000240BE
:1000D000000000180000070000035F00212200005C
:1000E000F4000018222000A00001001008ED00E03C
:1000F00000000000000000000000000074B24E7A12
:1001000000200420F7010010C3010010C5010010F9
:10011000C1010010C1010010C1010010C101001097
:10012000C1010010C1010010C1010010C701001081
:10013000C1010010C1010010C9010010CB01001065
:10014000CD010010CD010010CD010010CD01001037
:10015000CD010010CD010010CD010010CD01001027
:10016000CD010010CD010010CD010010CD01001017
:10017000CD010010CD010010CD010010CD01001007
:10018000CD010010CD010010CD010010CD010010F7
:10019000CD010010CD010010CD010010CD010010E7
:1001A000CD010010CD010010CD010010CD010010D7
:1001B000CD010010CD010010CD010010CD010010C7
:1001C00000BE00BE00BE00BE00BE00BEEFF3058054
:1001D000103800BEF2EB88719CCE0610C4CE06101B
:1001E0003402001090A31AE700201F49086006C8D7
:1001F00081F3088810471D48006800282FD10DA4FE
:100200000ECC002902D000F012F8F9E71849194A7B
:10021000002000E001C19142FCD1174988471749ED
:1002200088471749884700BEFDE701C901C29A42C5
:10023000FBD37047C4CE0610C00000204029002028
:1002400044F70610000004200000042044F70610C4
:10025000001004200010042000000000704709482E
:1002600004F0E0FF0047000008ED00E0000000D0CF
:100270004029002024520020C13C0010DD22001043
:10028000F13D00105756000006005250ABB36053CA
:100290000022051006005250861C03021022051091
:1002A000060052505422A29D441E051005005250D3
:1002B000DE65F46844F70610F8B5C04610B5064C84
:1002C0002378002B07D1054B002B02D0044800E017
:1002D00000BF0123237010BD482A00200000000049
:1002E00020160510044B10B5002B03D00349044819
:1002F00000E000BF10BDC046000000004C2A0020F6
:1003000020160510F0B5DE46454657464E46E0B588
:10031000B34CB448A54406F057F919A80200B24BF3
:10032000B24832CB32C232CB32C212CB12C26A4690
:100330001CAB32CB32C212CB12C202ACA4461A9A08
:1003400019991B9B60440EF01FFFA446A74B12A8EF
:10035000634419000FF074F8129A002A00D04CE29E
:100360000CAB99460EAB0C93A14B0EA931CB31C10E
:100370001888B12408809B789E488B700F234946CB
:100380004B60CA75642106F0C9F902AB9C46872010
:100390000123994D95496544240164446B60000133
:1003A00076332B8160442B004A462C6061440FF069
:1003B00037FF2868A04203D0AB68591C05F09EFFA8
:1003C00087219E2302AA09019B005218D458002CB1
:1003D00000D044E287219C2302AA09019B00521805
:1003E000D35C002B00D153E202AA94460B00634475
:1003F000190042A80FF0E2F88020C00009940A9486
:100400000B9405F06BFF8023DB00C7181A00002156
:10041000040009900B9705F055FF802200230A97EE
:10042000D20000E0099CE35401339342FAD17348AF
:1004300006F074F902AA9446714B64276344984607
:10044000704B00249B46E1AB9A460FE0142120003C
:1004500004F042FF002926D0E868404503D06B69CC
:10046000591C05F04BFF6437642C34D0280009AACE
:1004700042A90FF0EBF8AB68002B21D101340A211F
:10048000200004F029FF0029E0D16431380004F095
:1004900023FF0100584606F041F91421200004F022
:1004A0001BFF0029D8D1DEA842A90FF039F9DF9847
:1004B0005045D1D0E19B591C079305F01FFFCBE7B6
:1004C0005148611C06F02AF9E868404503D06B6981
:1004D000591C05F013FF0A2006F068F842A80FF037
:1004E0009FF802A98C46414B4A46634419002CA848
:1004F0000FF044FB3B9B0793002B0DD1A82102AAD0
:1005000038335218D35C002B00D1C1E1389B3F48EF
:100510001900079306F002F93D4806F055F8DE2170
:10052000012302A88446890002AA52182F49DF93AA
:10053000E0AC71332800DE94614413804A46DEABA0
:100540000FF06EFEDE98A04204D0E09B591C07938A
:1005500005F0D4FE9E239B00EB58002B00D089E0D1
:100560009C239B00EB5C002B00D191E12900DEA8CD
:100570000FF024F800239846264B00279A46264B76
:1005800046469B4621AC80222000D200DEA90FF017
:1005900089FF2369002B41D1237B002B00D177E118
:1005A0002199229A8A4239D0521A0137B618032F5C
:1005B00000D80EE1606928AB984203D0E369591C6A
:1005C00005F09CFE237B002BDDD0002320682373E5
:1005D0000028D8D0A368191A05F090FED3E7C046CA
:1005E00054F2FFFF30160510B01E0510E4050000A0
:1005F0006816051078160510080B0000B8160510CF
:100600001C0B0000E4160510C8160510EC160510AA
:10061000181705105C17051020160510606928AB27
:10062000B046984203D0E369591C05F067FE237B6E
:10063000002B00D021E13A004146964806F06EF8C2
:10064000DEA80EF0EDFFDEA80EF0EAFFDC22952317
:1006500002A992009B008918C85802A98C468E4BAB
:100660006344984206D097238A189B00D1580131E1
:1006700005F044FE894805F0A7FF02A98C46884B87
:10068000DEA8634419004A460FF068FCDF98E1AB2E
:10069000984203D0E199013105F030FE9F2302AA70
:1006A00094469B00E8587F4B6344984205D0A123B1
:1006B0009B00E958013105F021FE9C239B00EA5C78
:1006C000002A00D0B5E03C983EAB984204D03E9B57
:1006D000591C079305F012FEA821382302AA5218CC
:1006E000D25C002A00D08CE00998002803D00B9936
:1006F000091A05F003FE42A80EF092FF952342AAC4
:100700009B00D058D9AB984206D0972342AA9B00B1
:10071000D158013105F0F2FD87229F2302A9120171
:100720009B008918C85802A98C465F4B63449842C5
:1007300006D0A1238A189B00D158013105F0DEFDB7
:1007400087219C2302AA09019B005218D25C002A2F
:100750001FD10C980EAB984204D04B4699680131DA
:1007600005F0CCFD139815AB984203D015990131D3
:1007700005F0C4FD02AA9446494B634418000EF0EC
:1007800027FD4A4B9D44F0BCBB46B246A946A04655
:10079000F0BD87240022240102A909190800CA54C7
:1007A0000EF03EFF952302A99B000919C85802A923
:1007B0008C463F4B63449842CBD097230A199B0049
:1007C000D158013105F09AFD0C980EAB9842C4D176
:1007D000C8E7B44600231600CA5CD8B2824209D1E9
:1007E0000133B342F8D16646324A3900504605F02B
:1007F00095FFDFE666465A46F7E72F4805F0E4FE28
:10080000B0E7A820002202A909183298CA5434ABD4
:10081000984204D0349B591C079305F06FFD2C9827
:100820002EAB984200D15FE72E99013105F066FDAD
:100830005AE700222800EA540EF0F2FE952302AA9D
:1008400094469B00E8581D4B6344984200D13AE718
:1008500097239B00E958013105F050FD33E79F24B1
:100860000D00A400135916481900079305F056FF10
:1008700002AB5B192A00185955E70023219823730E
:10088000002800D1D7E6A168091A05F037FDD2E6A5
:1008900042F04AF834170510CC0500007C1705100B
:1008A000E40500008C0D0000F40A0000AC0D00000F
:1008B000CC0A00002816051050160510640D000023
:1008C0009C160510F0B5DE46454657464E46E0B547
:1008D000DC4CDD48A54405F077FE2BA80200DB4B7D
:1008E00047A832CB32C232CB32C212CB12C26A46D6
:1008F0002EAB32CB32C212CB12C22D9B2B992C9A2B
:100900000EF042FC47A91DA80EF09AFD1D9B002B7E
:1009100000D0C9E147A933A80EF0DEFD369C002CBB
:1009200000D0C8E1C42204AB9B181B78002B00D177
:10093000D6E1339D349EC648099605F045FE280051
:1009400004F0AAFF0022C34B04F031FF0022C14B88
:1009500004F02DFF02000B00BF4805F0DFFE300061
:1009600004F09AFF0022BB4B04F021FF0022B94B98
:1009700004F01DFF0B000200B84805F0CFFE0BABE2
:100980009A460DAB0B93B64B0DAA23CB23C21B7813
:100990003DA8137052460D23547547A953600FF0BC
:1009A00091F83E9840AB984204D0409B591C079365
:1009B00005F0A4FC012719AE53461D685C68179624
:1009C000002D00D13AE13D940F2C00D927E1012CF4
:1009D00000D079E154212B7804AA52181370320008
:1009E000002318941355189B0793079A9D4B9B1A45
:1009F000042B00D86EE105229B4917A82EF06AFB54
:100A000026AD2D2224A8012124952EF015F9249A33
:100A1000FBB2079330331370189C259A179BA018CC
:100A20009846B34200D131E11999884200D8F4E0E8
:100A30002499A94200D13BE1269B9C46604500D801
:100A40001CE117A82EF046FB082290463FAB3D93D1
:100A50009946036880440400434500D118E13D9362
:100A600083683F9363683E93434623600023237269
:100A700063603E9B0893089A7A4B9B1A032B00D81D
:100A800028E1042279493DA82EF024FB0822934650
:100A900013AB119398460368834404005B4500D16F
:100AA000FCE0119383681393636812935B462360A1
:100AB000002323723D986360484504D03F9B591C36
:100AC000089305F01BFC2498A84204D0269B591CCF
:100AD000089305F013FC1798B04204D0199B591CD9
:100AE000089305F00BFC5422002404AB9B18079AD2
:100AF000179640321894D2B21C70B90217A82EF083
:100B000011FA17AB009411AA47A924A80FF0E4F931
:100B1000249B0793002B3CD147A93DA80EF0DCFC99
:100B2000409B0793002B2BD1EC2204AB9B181B7826
:100B3000002B00D1D4E0119B3A0019004C483E9C98
:100B4000079305F0EBFD099B181B04F0A5FE00229E
:100B5000404B04F02CFE02000B00464805F0DEFD81
:100B6000200004F099FE00223A4B04F020FE0022FF
:100B7000384B04F01CFE02000B003F4805F0CEFD90
:100B8000419843AB984204D0439B591C079305F00E
:100B9000B5FBFA20400002F0E3FA259827AB984213
:100BA00003D02799013105F0A9FB1798B04204D072
:100BB000199B591C079305F0A1FB1198404503D0E0
:100BC0001399013105F09AFB0137062F00D0F3E6A7
:100BD0000B980DAB984204D053469968013105F04B
:100BE0008DFB379839AB984203D03999013105F024
:100BF00085FB1E9820AB984203D02099013105F067
:100C00007DFB47A80EF0E4FAEB239B009D44F0BC6B
:100C1000BB46B246A946A046F0BD249911E7002282
:100C20003DA917A82DF0EAFF3D9B179019932200CC
:100C3000290005F04DFB3D9C179AD1E6002C4CD1C4
:100C40003200CDE654FCFFFF94170510B01E0510CE
:100C5000D41705100000503FF017051004180510B8
:100C600024180510FFFFFF3FDC180510441C051079
:100C7000781805109C180510C0180510434600226E
:100C80000021009424A82EF061F9DDE60F21CCE6C6
:100C900041464846083205F01BFBE3E6594640460C
:100CA000083205F015FBFFE60E4805F08DFCA0E7C5
:100CB0000F239C46C2E60C4805F086FC379839ABFA
:100CC000984200D091E794E73200002C00D187E6EB
:100CD0003000ACE7054823F0A1FB054823F086FB74
:100CE00041F022FE50160510B817051060180510C7
:100CF00034180510F0B5DE46454657464E46E0B579
:100D00009F4CA048A54405F05FFC2AA802009E4B1A
:100D10003DA832CB32C232CB32C212CB12C26A46AB
:100D20002DAB32CB32C212CB12C22A992B9A2C9BFA
:100D30000EF02AFA3DA915A80EF082FB159C002C96
:100D400000D0E4E01323002232A90BAD09A83293AE
:100D500009952DF053FF329B13228C490B93099078
:100D600005F0B6FA329B099A0A93D454572300220D
:100D700032A911AE0FA832930F962DF03FFF329B90
:100D80008349572211930F9005F0A2FA329B0F9AD4
:100D900010938048D45405F017FC0FAB009409AAB7
:100DA0003DA91CA80FF098F81C9B002B00D0C2E0B6
:100DB000109A0F9B002499180792994204D01A7830
:100DC0000133A4189942FAD12100734805F0A6FC1A
:100DD000724805F0F9FB09AA3DA932A80FF00CFCF6
:100DE000369B0793002B00D095E0CC2202AB9B18DA
:100DF0001B78002B00D1C0E0339B329F9B4623AB76
:100E0000984625AB994623935B46DB1B9A4648469A
:100E100008930F2B00D9A7E0BB4506D00023FA5C4E
:100E2000C25401339A45FAD123980022089B002727
:100E30002493C254249B19000793239B9C4661442E
:100E4000994204D01A780133BF189942FAD1390077
:100E5000534805F063FCBC4200D181E0514805F0E5
:100E6000B3FB109A249B9A426DD04F4805F0ACFB1F
:100E70002398484503D02599013105F03FFA4046B3
:100E800009AA3DA90FF06AF84346586826AB984274
:100E900004D04346D968013105F030FA379839ABB0
:100EA000984204D0399B591C079305F027FACC22AD
:100EB00002AB9B181B78002B30D11D981FAB9842BA
:100EC00003D01F99013105F019FA0F98B04203D0F1
:100ED0001199013105F012FA0998A84203D00B9933
:100EE000013105F00BFA169818AB984203D0189907
:100EF000013105F003FA3DA80EF06AF9E1239B00E9
:100F00009D44F0BCBB46B246A946A046F0BD27486A
:100F100005F05AFBE7E723AB9846B0E7CC21002366
:100F200002AA3298521813700028C6D03499091AB0
:100F300005F0E4F9C1E71E4805F046FB1D981FAB1C
:100F40009842BED1C1E7002A06D023990F9850F0ED
:100F50008FFA002800D088E7164805F035FB87E7B0
:100F6000154805F031FB7CE70022404608A92DF02A
:100F700045FE089B239025934EE741F0D5FCC046E3
:100F80007CFCFFFFE4180510B01E05100C190510BD
:100F90002019051078190510AC190510C419051091
:100FA000E0190510181A0510501A051050160510F2
:100FB00090190510381A0510F8190510F0B54546B6
:100FC000DE4657464E46E0B503681500426889B0D4
:100FD0000091D11AC9100192CA00521803939301CB
:100FE000D218D2005218D303D318DB005B18AD4AD5
:100FF0005B428046934200D150E1002B00D18FE04C
:10100000590005918B4200D914E1009B039A9C1A68
:10101000059B002B00D037E10293029B2F689C4672
:101020006444200008306E682060002F00D119E170
:1010300007960F2E77D8012E00D021E13B7823723E
:1010400000236660835520002300AF692030EE69DD
:101050001833A061002F00D10AE107960F2E00D9A6
:10106000F1E0012E00D007E120233A78E25400237A
:10107000E66183552B6B2363AB8EA386039C009B99
:101080009C4264D000232600994620339B461433AB
:101090009A46029D203636E02B60A368AB606368F9
:1010A00028006B604B462030636023722760A86184
:1010B000A369B34246D0AB61236A2B62E3694A4617
:1010C000EB614B46E3615B46A661E254236B5246FB
:1010D0002B635346E35CAB543523727DEA54A0691D
:1010E000B04203D0236A591C05F008F920688742F2
:1010F00003D0A368591C05F001F9009B383438353A
:1011000038369C4224D02800270008302860236805
:1011100008379F42C0D11022390005F0D9F8BEE748
:101120000133059371E70022200007A92DF066FD29
:10113000079B2060A3603200390005F0C9F8079EC4
:1011400020687DE71022310005F0C2F8B6E7029D65
:10115000019B009C38350495A3424ED00023260005
:101160009A463433994601339B46203622E02B6061
:10117000A368AB60636828006B60534663602372AA
:10118000A36920302760A861B34220D0AB61236AF5
:101190002B62E3694A46EB61236B2B634B46E35CAE
:1011A0003834AB545A46737D3836AB54019B3835CE
:1011B0009C4211D028002700236808300837286097
:1011C0009F42D4D11022390005F082F8D2E71022D4
:1011D000310005F07DF8DCE7009BE41A383C324B27
:1011E000E4085C43E400E4080134E3001C1B049BB6
:1011F000E4009C46A44463460493039B002B05D063
:10120000424692681800D11A05F078F84246029BCF
:1012100004999C46136043465160059AD000801A99
:10122000C0006044986009B0F0BCBB46B246A94615
:10123000A046F0BD009B03991C485C1A059205F07E
:101240004DF80290E9E61800002207A92DF0D6FC1F
:10125000079BA06123623200390005F039F8079E30
:10126000A06904E7002E00D1EAE6114823F0BEF899
:10127000002E00D1FBE6F8E7002E00D1F7E6EAE702
:10128000002E00D1DCE656E7064B059A9A4200D9BB
:101290000593059BD800C01AC000D0E7054823F08D
:1012A000BDF8C04692244902B76DDB16F0FFFF7F00
:1012B00034180510641A0510F0B5DE4657464E4640
:1012C0004546E0B5A5B00293002383460360436022
:1012D000836019A81400059110F06CF91D9B01930F
:1012E000002B00D0DEE048220AAB9B181B78002BB5
:1012F00000D1E7E3199B303A9A461A9B5244049373
:1013000001929A4518D05B46D3469A465B463422F2
:101310009B5C002B28D15B46029A5B6856689E4214
:1013200000D8EEE038239C46019BE3443833019318
:10133000049B5B45EAD1D3461E9820AB984204D06B
:10134000209B591C019304F0D9FF48220AAB9B183B
:101350001B78002B00D07DE0584625B0F0BCBB4682
:10136000B246A946A046F0BD029B019A05990AA87B
:10137000FFF7A2FF53460A9C5F680B9B0393A342AF
:101380005FD01B1B994653469B68DB1B4B4500D225
:101390001CE13E002036380008303860236865685C
:1013A0009846002B00D1A4E013950F2D00D991E0B1
:1013B000012D00D032E31B783B7200237D60435542
:1013C000BE61A369E5699846002B00D195E01395AD
:1013D0000F2D6FD8012D00D024E320221B78BB54A1
:1013E00032000023FD6153553422236B3B63A35C21
:1013F000BB543523E35C38347375039B3837383678
:10140000A342C8D1534652465B680A9C4B440B9D8D
:101410005360A54215D02300A0692033984203D021
:10142000236A591C04F06AFF23002068083398429D
:1014300003D0A368591C04F061FF3834A542EAD1F7
:101440000A9C002C00D16DE70C992000091B04F0C8
:1014500055FF67E7482100230AAA199C1A9D5218D4
:101460001370AC4215D02300A0692033984203D0FA
:10147000236A591C04F042FF230020680833984275
:1014800003D0A368591C04F039FF3834A542EAD1CF
:10149000199D002D00D15FE71B992800491B04F01E
:1014A0002DFF59E71E9B21681A00DD48019305F0C6
:1014B00035F941E73800002213A918302DF09EFBC2
:1014C000139BB8613B622A00414604F001FF139D63
:1014D000BA6986E70022380013A92DF08FFB139B11
:1014E0003860BB602A00414604F0F2FE139D386864
:1014F00063E7002D00D160E78DE2002D00D16FE79A
:1015000089E29F1B9F4200D9D4E25A460FAD0D9548
:101510001268D719002F00D1DEE013960F2E00D9E4
:10152000CAE0012E00D046E23B780AAA13752A00D1
:1015300013AC00230E9693550D9B03930E9B1F0037
:101540000693039B9C4667441E009F4206D030785A
:1015500047F08CF930700136B742F8D115AB2360F3
:10156000029B1F685E68002F00D13AE20A960F2E98
:1015700000D927E2012E00D084E23B78237215AA1D
:1015800000236660935526686268B718B74208D092
:10159000307847F06BF930700136B742F8D1139EBE
:1015A000149A0E9B934200D1B4E115AB9E4204D035
:1015B000A1683000013104F0A1FE0D98A84200D1CD
:1015C000B0E60F99013104F099FEABE65346186876
:1015D0004B46D910CA0052189301D218D2005218A3
:1015E000D303D3180790381AC010DB005B18C10072
:1015F00009188A018918C9000918CA038A18D20073
:1016000012188848514284465B426244934200D992
:1016100055E28B4200D20B005B180893994200D927
:10162000E3E100220692002B00D035E2079DAF4295
:1016300000D104E220222B00944663449846002304
:1016400099465B46069EA34609934446B84626E063
:101650003360AB68B3606B68300073604B4620301A
:101660006B602B722F60B061AB69A34239D0B3615C
:101670002B6A3362EB694A46F3614B46EB612023E8
:10168000AC61EA5434222B6B3363AB5C3835B35412
:101690003523627D3834F2543836A84526D03000E0
:1016A0002F00083030602B680837BB42D0D11022A1
:1016B000390004F00DFECEE713AC002221000DA886
:1016C0002DF09CFA139B0D900F933200390004F01B
:1016D000FFFD139E0D9A2CE7D318002B00D11CE7B9
:1016E00099E11022210004F0F3FDC3E7099B5C4659
:1016F0009B464346079A383B9B1ADA084A4B4746B3
:101700005343DB00DB080133DE00F61A069BF600CC
:101710009C46664420239846B0444346B8461F0082
:10172000300008303060236865689946002B00D18E
:101730009BE013950F2D00D988E0012D00D064E1C6
:101740001B783372002375604355B761A369E5695F
:101750009946002B00D18CE013950F2D66D8012DF2
:1017600000D04CE120221B78B3543A000023F561ED
:1017700053553422236B3363A35CB3543523E35CAA
:1017800038347B75039B38363837A342C8D153466B
:1017900047465B6803939F4200D187E02023984629
:1017A000002399465B46B8443500B3463C004646A4
:1017B0000793B84627E02B60A368AB6063682800F6
:1017C0006B604B462030636023722760A861A36979
:1017D000B34252D0AB61236A2B62E3694A46EB61A4
:1017E0004B46E3612023A661E2543422236B2B6332
:1017F000A35C3834AB543523727D3836EA54039BEE
:101800003835A3423ED028002700083028602368DE
:1018100008379F42CFD11022390004F059FDCDE79F
:10182000801A051092244902B76DDB1630000022A1
:1018300013A918302DF0E2F9139BB06133622A002E
:10184000494604F045FD139DB2698FE70022300040
:1018500013A92DF0D3F9139B3060B3602A004946D9
:1018600004F036FD139D30686CE7002D00D169E768
:10187000D1E0002D00D178E7CDE01022310004F056
:1018800027FDAAE747465E46079B9B46039B383BDE
:10189000DF1B8D4BFF087B43DB00DB080133DA00E5
:1018A000D31ADB00F61853465B6803935346039D37
:1018B0001C68AC4217D02300A0692033984203D0A3
:1018C000236A591C04F01AFD23002068083398424B
:1018D00003D0A368591C04F011FD3834A542EAD1A5
:1018E00053461B680393039B002B05D05246926816
:1018F0001800D11A04F002FD5246069B0A9C9C4631
:1019000048C25346089A0B9DD000801AC00060441C
:1019100098607EE5002A06D031000D984FF0A8FDB2
:10192000002800D041E653465E689B689E427FD007
:1019300030005B46083030601B6898465B465F6845
:101940004346002B65D00A970F2F00D988E0012F5E
:1019500000D09DE01B78337200237760C3553000C0
:101960005A462030B0619269330090465A46D76992
:1019700042461833002A00D181E00A970F2F60D821
:10198000012F00D092E020231278F2540023F76157
:10199000C3555B461B6B342233635B469B5CB3547D
:1019A000019B5A7F3523F254534652465B682668A2
:1019B00038335360F9E52A0013AC002E00D1B8E5A6
:1019C000280082E6002220000AA92DF017F90A9BC0
:1019D0002060A3603200390004F07AFC0A9E22687D
:1019E000CEE5002E00D1CAE515E0384B3848089303
:1019F00004F074FC53461B680690079316E63A0001
:101A0000002D00D1B2E6380019E7002D00D199E68B
:101A100024E7002FA0D02F4822F0E8FC002D00D1B1
:101A2000CBE45FE53200002D00D1DAE430004AE576
:101A300031005A465046FFF7C1FA2668B5E5069EC2
:101A400068E6180000220AA92DF0D8F80A9BB061B8
:101A500033623A00414604F03BFC0A9FB06995E7C7
:101A6000002230000AA92DF0C9F80A9B3060B3604B
:101A70003A00414604F02CFC0A9F30686CE7002FC6
:101A800084D0C8E715AA002E00D179E51000A1E79F
:101A9000002F00D160E7EBE70C4B089A9A4200D97F
:101AA0000893089BD800C01AC000A1E7002F00D1FE
:101AB0006CE7CEE73A000849084822F0C7FC08481E
:101AC00022F0ACFC40F030FFB76DDB1692244902E7
:101AD000F0FFFF7F34180510B41A0510CC1A05105A
:101AE0009C1A0510F0B5DE46454657464E46E0B511
:101AF000724C7348A54404F067FD13A80200714BB3
:101B00008DA832CB32C232CB32C212CB12C26A465D
:101B100016AB32CB32C212CB12C21399149A159B58
:101B20000DF032FB8DA90CA80DF08AFC0C9C002C4A
:101B300000D0B0E3644804F047FD2DAB98466349FC
:101B40002FAB2D9305C905C31A000B8845AD138033
:101B50008B7833A8937042460B23536035AB936167
:101B60001223D4742900002245932DF047F84346F0
:101B7000459A57491A629861122204F0A9FB42461D
:101B8000459B2900D361926939A8D45442463BABA6
:101B900013631523002245932DF030F84346459AF0
:101BA0004C499A631863152204F092FB4246459B08
:101BB00029005363126B3FA8D454424641AB93644F
:101BC0001123002245932DF019F84346459A4249C6
:101BD0001A659864112204F07BFB4246459B602005
:101BE000D364926C4646D45404F078FB6021020022
:101BF0008C4662449146040009900BE0012F00D00E
:101C000055E31B782372002367601834C3551836D8
:101C10004C451FD02000336808309A467768206012
:101C2000002B46D045970F2FE8D90022290020002D
:101C30002CF0E4FF459B2060A3603A00514604F07D
:101C400047FB0023459F206867601834C35518364A
:101C50004C45DFD10B942C00183C2300206808333E
:101C6000984203D0A368591C04F048FB4445F3D1C3
:101C7000099A0B9B140048AF934233D0B946174ED4
:101C80001F0009E06868484503D0EB68591C04F060
:101C900035FB1834A74225D0220028008DA90DF06D
:101CA00011FF2B68002BEDD13000216804F036FDC8
:101CB000E8E7002FA7D00A4822F098FB3CFBFFFF83
:101CC000201B0510B01E0510441B0510601B0510DD
:101CD0006C1B0510801B0510981B0510F41C0510CB
:101CE000341805101D26DD4804F06EFC47AB0022B9
:101CF000414628002D9645932CF080FF00242D9B13
:101D00001D22D7494590AB6004F0E2FA2D9B459A1D
:101D10006B60D4544DABAB611023002241464BA8FD
:101D20002D932CF06BFF2D9B1022CE492B62A861C6
:101D300004F0CEFA2D9BAA69EB61D45453AB002278
:101D400041462B6351A82D962CF058FF2D9BC64978
:101D50001D22AB63286304F0BBFA2D9B2A6B6B63D7
:101D6000D454C24B59AAAA6443CB43C211001A8867
:101D70000F260A809B7800228B705F23EE64EC5460
:101D80005FAB2B66202341465DA899462D932CF02E
:101D900035FF2D9B2022B649AB66286604F098FAE1
:101DA0002D9B2A6E6B66D45465ABAB67182300225B
:101DB000414663A82D932CF021FF802390272D9A74
:101DC000AC49A867EA50182204F082FA2D9BAA6F4A
:101DD000EB67D4546BABEB514B460022414669A8EC
:101DE0002D932CF00BFF98232D9AE851A249EA502D
:101DF000202204F06DFA94222D9BAB50EA59D45462
:101E0000A82371AAEA509D4B83CB83C211001A8884
:101E1000C0270A809B7800228B70AC23EE501333CE
:101E2000EC5477ABEB511B23414675A899462D9393
:101E30002CF0E4FEC8232D9AE8519149EA501B2268
:101E400004F046FAC4222D9BAB50EA59D454D8234F
:101E50007DAAEA508B4B83CB83C211001A88F027EE
:101E60000A809B7800228B70DC23EE501333EC54F5
:101E700083ABEB514B46414681A82D932CF0BEFE1F
:101E8000F8232D9A8049E851EA501B2204F020FAE9
:101E9000F4222D9BAB50EA59D454842389AA5B00C9
:101EA000EA507A4B83CB83C211001A8890200A80B3
:101EB0009B7840008B7086235B00EE502023FF331D
:101EC000EC5404F00BFA9022520003009446634451
:101ED0009946202306002C009B460A9020E0012F03
:101EE00000D0E8E11B78337200237760C3553000DF
:101EF000A36920309A46E769B061002B00D181E0E8
:101F00002D970F2F26D8012F00D0D8E15A461B78E5
:101F1000B3540023F7613036C3553034B1452FD068
:101F20003000236808309A4667683060002B65D01F
:101F30002D970F2FD3D90022414630002CF05EFEA2
:101F40002D9B3060B3603A00514604F0C1F92D9FDB
:101F50003068C9E730000022414618302CF04EFEB0
:101F60002D9BB06133623A00514604F0B1F9002371
:101F70002D9FB069F7613036C3553034B145CFD1AC
:101F800081AC00E01C002300A0692033984203D0FC
:101F9000236A591C04F0B2F92300206808339842E0
:101FA00003D0A368591C04F0A9F92300303BA542D3
:101FB000E8D10A9B48AF1C009E4226D000239946D8
:101FC000334B9A4609E06868B84203D0EB68591C65
:101FD00004F094F93034A64217D04B460093230006
:101FE0002200183328008DA90DF076FF2B68002BF6
:101FF000E9D15046216804F091FBE4E7002F00D1BD
:1020000072E758E6002F84D055E6224804F0DCFA47
:102010001BAB9B461DAB1B931F4B04221D935B46C2
:1020200059465A60002358460B7323A981611B4906
:10203000C26123912421435429A9016342631849B1
:10204000383283544820299104F048F9030048337A
:10205000B24607005E460890079330E0AC1B0510BF
:10206000C41B0510E41B0510F81B0510181C0510F7
:10207000281C05104C1C0510681C05108C1C051034
:102080009C1C0510B81C0510C81C0510E41C05108C
:10209000241D0510081D05102E7478742E6A7067B3
:1020A0002E6D7033012C00D0FDE01B783B720023B5
:1020B0007C600355079B18371836BB4221D0380087
:1020C00033680830994674683860002B00D1DEE030
:1020D00045940F2CE6D90022290038002CF08EFD03
:1020E000459B3860BB602200494604F0F1F80023AC
:1020F000459C38687C600355079B18371836BB42EF
:10210000DDD156464446183C2300206808339842E7
:1021100003D0A368591C04F0F1F85C45F3D1089B87
:102120009F426AD0089BBB469A46674B994633004C
:1021300056469A463168654804F0F0FA644A47AB5F
:102140002B6003CA03C311884046198092788DA979
:102150009A700B236B6000232A00EB743300FFF7A7
:10216000ABF8286847AB984203D0AB68591C04F021
:10217000C5F82E9F2D9CBC4207D0226BA169484612
:10218000383404F0CBFAA742F7D10A2004F00EFA53
:10219000434690CBBC4216D02300A069203398421E
:1021A00003D0236A591C04F0A9F8230020680833DF
:1021B000984203D0A368591C04F0A0F83834A74211
:1021C000EAD143461F68002F05D043469B6838007C
:1021D000D91B04F093F81836B345ABD156465F4689
:1021E000089C230020680833984203D0A368591C38
:1021F00004F084F81834A742F3D14821089804F079
:102200007DF80A9B9E4215D01C002300A069203354
:10221000984203D0236A591C04F070F82300206808
:102220000833984203D0A368591C04F067F830348F
:10223000A642EAD190210A98490004F05FF80B9D6C
:10224000099B9D420CD01C00230020680833984253
:1022500003D0A368591C04F051F81834A542F3D1F7
:102260000998602104F04AF80D980FAB984203D00A
:102270000F99013104F042F88DA80CF0A9FF154B1D
:102280009D44F0BCBB46B246A946A046F0BD002C1A
:1022900000D10CE70FE5104804F096F90D980FAB4C
:1022A0009842E5D1E8E7002C00D100E71BE7002FBA
:1022B00000D1A8E4C1E4002F00D115E643E6002FC9
:1022C00000D126E64FE6C0464C1D0510381D05100E
:1022D000601B0510C40400005016051070B50524DD
:1022E00004F028FA1D4804F06FF91D4E1D4D210021
:1022F000300004F013FA2B68013C986840F0E0FCD1
:10230000FA20800000F02CFF002CF0D1164804F0D9
:102310005BF9164C200004F057F9154804F054F905
:10232000200004F051F9134804F04EF9124A134901
:10233000134804F0F3F9134804F046F9FFF7D2FB11
:10234000FDF7E0FFFEF7BEFAFEF7D4FC0E4804F0FE
:102350003BF9FA20800000F003FFFAE7701D05103A
:10236000A01D0510EC1E0020BC1D0510D41D05107D
:10237000001E0510241E0510381E0510441E0510F1
:10238000501E0510681E0510941E051010B5024859
:102390000FF038FD10BDC0461C450020094A8300DF
:1023A00094464022634410B51C68C0006240C024BB
:1023B00014408022520113431C60034B9C4660442E
:1023C000416010BD04C0014000400140094B800045
:1023D0009C464B1E99416044C900002A01D0042349
:1023E000194303684B400C21194080235B011843BB
:1023F0000160704704C00140074BC0009C46604428
:10240000036809025940C0239B00194080235B01E7
:10241000184301607047C046044001400123D022A8
:102420008340120693629361094A830094464022D6
:1024300063441968C0004A40C02111408022520103
:1024400013431960034B9C46052360444360704767
:1024500004C0014000400140024B18688007C00FD3
:102460007047C04600C00640EFF3108072B6034AC2
:102470001368002BFCD0BFF35F8F70472C0100D096
:10248000BFF35F8F0022024B1A6080F31088704701
:102490002C0100D070B5EFF3108C72B60D4D2B6887
:1024A000002BFCD0BFF35F8F0724CB08C618C05C9D
:1024B00001230C40A3401C000440034207D1034306
:1024C0003370BFF35F8F2C608CF3108870BD1000E9
:1024D00001F0ACFC2C0100D0F8B54746CE4688464A
:1024E00080B5EFF3108C72B6214D2C68002CFCD017
:1024F000BFF35F8F9A422CD8D4080727055D0619D1
:1025000001241740BC402C421FD0072101278946D7
:1025100009E0D408055D06194C4639001440A14075
:102520000C00294211D001329342F2D201204042E4
:10253000BFF35F8F00220E4B1A608CF310880028C7
:102540000FDBC0BCB946B046F8BD2C431000347058
:10255000EEE7BFF35F8F00232B608CF31088012020
:1025600040424346002BECD0089801F05FFCC04687
:102570002C0100D00021044B044ABFF35F8F02C33B
:102580009342FAD17047C046000100D0800100D0CC
:10259000044A1078431CDBB2172B00D910231370A8
:1025A0007047C046341D002000B5054B83B00100C4
:1025B000009318221F230348FFF78EFF03B000BDCE
:1025C000D01E0510FC4A002001238340002904D0BE
:1025D000034A1360034A13607047034A1360FBE722
:1025E00080E200E000E100E080E100E001238340C0
:1025F000014A13607047C04600E200E0084B10300B
:102600009B688000C358002B07D0064A00209B1A05
:102610002F229A424041C0B270470020FCE7C046DA
:1026200000ED00E0381D0020024B10309B68800058
:10263000C058704700ED00E070B50D00EFF3108654
:1026400072B60F4A1368002BFCD0BFF35F8F0D4B9F
:1026500010309B6884001B590B4A934203D09D4263
:1026600001D001F0FBFB074B9B681D51BFF35F8F4F
:10267000BFF35F8F0022024B1A6086F3108870BD93
:10268000240100D000ED00E0CD010010F0B5574668
:102690004E46DE464546E0B585B00600029117007D
:1026A000EFF3108B72B6674A1368002BFCD0BFF3B0
:1026B0005F8F0025644B5D579A46002D00DAA4E039
:1026C0006B00624C03935B199B009846A146C14482
:1026D0004B4652469B79103613705D4BB2009B6897
:1026E000019299580B1B2F2B34D95A4B994200D089
:1026F000A4E0039B584A9C46584B6544AD00635385
:10270000434602336519E418554B0121043B1B1B5A
:102710001B055B0D13436B80524BEF71AB80FF23A6
:10272000AB71029BAB604B460B431900484B019ABF
:102730009B689950BFF35F8FBFF35F8F0022414BBF
:102740001A608BF3108805B0F0BCBB46B246A946B0
:10275000A046F0BD01200A008243D379BB422FD8A6
:1027600045464E46130040491B1B5B415943090D2A
:102770003A4B63533A4B02356519043B5B1B1B050F
:10278000354D5B0D2B4373800426B446E04444442E
:10279000131F1B1B4C46A17102991B05A1604946E2
:1027A0005B0D2B43A380314BE77101431360BDE701
:1027B0005800C01880002018C679BE422BD90200EC
:1027C0000623D356002BF3DA101D82462848804694
:1027D00004267642B446E14450464E46361A300549
:1027E000400D824656461C48957106439680039AD2
:1027F000944665441D4AAD00641922604246A371A7
:10280000029BA280E771A36090E701F027FB0025FF
:1028100053465D5754E7101D8246908840050015C9
:1028200084464046D444664604302018301AE026D8
:102830000005400D360230438046C9E701F00EFB2B
:1028400057E7C046240100D01B520020381D00204D
:1028500000ED00E0CD01001000E0FFFF00A1FFFF50
:10286000681D002001BDFFFFAAAA000001488047A3
:1028700001BD0000F0B5DE4657464E464546E0B580
:102880000C0083B0EFF3108972B6584A1368002B1E
:10289000FCD0BFF35F8F564B9A68030010339F0044
:1028A000D559544A9046954232D0A54243D0524E13
:1028B000AA1B2F2A2CD801228240924651464F4A09
:1028C00012681140019151464D4A1160BFF35F8F6C
:1028D000EFF305829346002A33D101232A009A435D
:1028E00093689C4208D177E04B005B189B00F3187B
:1028F0009968A1422AD01A00062151560029F3DA1C
:10290000019B002B19D052463E4B1A603B4B1A607C
:10291000374B9B68DD51BFF35F8FBFF35F8F0022A2
:10292000324B1A6089F3108803B0F0BCBB46B24644
:10293000A946A046F0BD1500EAE75246304B1A60A2
:10294000E6E79342C9D001F089FAC6E70621595655
:10295000002921DB4A005018800034188046A06806
:102960009860E079D871062020569871002824DB01
:10297000A488F01A6405241544440019E0240005D5
:10298000400D24022043988052181F4B9200B61825
:102990001A781970B271B3E7594600290FD1FF3187
:1029A00091711A49918018490A789A71184A9B1BAB
:1029B0005B415A43120D0A70A2E71648E3E7164A34
:1029C0001649D21A083A5002400D01439980144921
:1029D00052080A43DA8093E7062151561300002972
:1029E000B8DA5A46002AEAD14546DCE7240100D08D
:1029F00000ED00E0CD010010381D002000E100E0F6
:102A000080E100E080E200E01B52002001BDFFFFFA
:102A1000AAAA000001BD0000721D002000F0FFFF07
:102A200000F8FFFFF0B5EFF30584C646012600B5B8
:102A30000643EFF3108C72B61C4A1368002BFCD0CF
:102A4000BFF35F8F1A4FA400BB681A4D1B590200D9
:102A5000984619490023521B52415143090D2A003F
:102A600049B2B04515D0062414578C4215D0013315
:102A70000C32042BF7D1114B1A7819708271BFF305
:102A80005F8F0022094B1A608CF3108880BCB84617
:102A9000F0BDBB680A4A1A51EDE75A00D3189B00F3
:102AA000ED18FF23AB71074BAB80E4E7240100D0A6
:102AB00000ED00E0381D0020AAAA00001B520020F3
:102AC000CD01001001BDFFFF054B064A1360064A09
:102AD000136053609360D3601361536193617047D7
:102AE0008080808000E400E004E400E000B5074B53
:102AF00083B001000093002205230548FFF7ECFC9A
:102B0000002801DB1F23181A03B000BDEC1E0510BE
:102B100020520020024B9C466144890001607047AE
:102B20004000003410B50400FFF732FD0100200022
:102B3000FFF7F0FFFF232371BFF35F8F10BDC04687
:102B400010B50400FFF724FD01002000FFF7E2FFAD
:102B5000FF23A380BFF35F8F10BDC04610B50400F4
:102B60000120FFF721FD044B9C466044800020605B
:102B7000BFF35F8F10BDC04640000034034B9C463E
:102B8000614489000160BFF35F8F704740000034EB
:102B900083680B4810B58446614462440901120100
:102BA0009A18591854684B6801209C4201D802D0E9
:102BB0000020C0B210BD12680B689A42F9D8F7E73E
:102BC000FFFFFF0F0A4B1968EFF3108072B60A6817
:102BD000002AFCD0BFF35F8F1B68BFF35F8F00221A
:102BE0001A6080F3108840BF002000217047C04663
:102BF000DC51002070B542680400EFF3108572B616
:102C00001368002BFCD0BFF35F8F2068CEB2437BEC
:102C1000B3420AD0FF230B405A00D31802689446EF
:102C20006344033B9B78002B13D0FF230A0A0B401D
:102C3000E168D2B28C466344013B197891420ED0D0
:102C400000206368BFF35F8F00221A6085F310884D
:102C500070BD22699142F3D100202361F1E7310078
:102C600000F02EFDEDE7C046F8B557464E46454606
:102C7000DE46E0B599460CAB1D780DAB1B7806001F
:102C800090469A460768002D3BD02B006C003A68AE
:102C90006419033C1119374A9446B2686344944658
:102CA00042461B0163441A604A465A600A9A9A6077
:102CB0000B9ADA6000238B704B700B707B7B9B460A
:102CC000002B3ED02A005946B8687B6898473A687E
:102CD00000282AD05B4658465B005B441419033B2E
:102CE000A070D118D35C002B40D15B460D7028003A
:102CF0007B73AB4526D0F0BCBB46B246A946A04686
:102D0000F8BDB87B0028F6D044003A682418033C8C
:102D100011194A780300BA73002A00D1FA7300220D
:102D200005008A704A700A70B5E75B465B005B4439
:102D3000033BD3189D701119125D002A18D15B4610
:102D40000B707D7342464B46307D00F053FB041EF2
:102D500006D05346002B03D12900306800F0B0FCA8
:102D60000E9B2800002BC6D01C70C4E76370BCE724
:102D70005A70E4E7FFFFFF0FF0B5DE4657464E46B8
:102D800045460023E0B58BB00893674B8200D458CA
:102D900000239B46099000F0A3FA626806000F002A
:102DA000EFF3108572B61368002BFCD0BFF35F8F72
:102DB00023689C465B7B9946002B00D169E0A268A2
:102DC0005A4B90464B441B01984443461A685B6833
:102DD00010001900801BB941002900DC63E009984C
:102DE00000F008FB00230022984600230692079378
:102DF00000239A466368BFF35F8F5A461A6085F3D3
:102E000010885346002B08D10028C4D10BB0F0BC69
:102E1000BB46B246A946A046F0BD089B41461802F3
:102E20004B461843D047626806000F00EFF3108549
:102E300072B61368002BFCD0BFF35F8F002F50DBFE
:102E400033003B4302D02369002B61D12368D97B37
:102E5000002907D04A00521819688C464946624436
:102E6000033A51709A7B002A01D14A469A734A4626
:102E7000DA734B46E168013BCA5C0132CA545B46D7
:102E800023616368BFF35F8F5A461A6085F3108829
:102E900081E700230022984600230692079300232F
:102EA00000209A46A6E7002902D1002800D096E724
:102EB0000021604600F0D8FB43461A685B68069222
:102EC000079343469B689A464346DB689846E36807
:102ED0004B44013B1B7808931B02034323610020F2
:102EE00088E72369002BB1D0069A079B921BBB4150
:102EF000002B15DB594604910121039149460291AB
:102F000041460191514620000091FFF7ADFEB6E722
:102F100000F0E6F932003B0012184B41002BE9DAD1
:102F20000122034B5242E5E7BC4F0020FFFFFF0F99
:102F3000FFFFFF7F10B5144C6368002B04D00A21FB
:102F40001248FFF7E7FD10BD2300114A1021206849
:102F500000F0D8FA032000F0B7F9032000F0B4FA2B
:102F600003200C4900F000FAFFF712FB0A4B9C46C5
:102F700003232375D0231B061B6860446375074B2E
:102F800080006060DC60DAE7801D0020DC510020FA
:102F9000912B0010792D001040000034BC4F002010
:102FA00000487047801D0020F0B54546DE46574674
:102FB0004E46E0B58BB01D00149B80469B46159B8A
:102FC00014009A4616AB1B7802AA07930023994671
:102FD000D37743465A68EFF3108672B61368002B16
:102FE000FCD0BFF35F8F02AA94461F23634404936F
:102FF0004B4603930293534601935B462200009392
:1030000040462B00FFF730FE0023002804D0434643
:10301000DB681B18013B1B7842465268BFF35F8F89
:103020004946116086F3108800282FD002AAD27F6B
:10303000002A08D11B0218430BB0F0BCBB46B246B5
:10304000A946A046F0BD079B002B1DD0514600208D
:10305000D847030006000F000B4315D0002907DAFC
:10306000A41BBD41002DB4DA01240A4D6442B0E72F
:1030700000F036F934003D0024184D41002DA8DA47
:103080000124044D6442A4E70020D5E7012040421A
:10309000D2E7C046FFFFFF7F407D7047F0B50400D8
:1030A0000D0006267642F717C64636196F4100B561
:1030B00084B08F4214D811D000F012F932003B00D6
:1030C000121A8B41002B15DC002B3ED0200029006A
:1030D00000F03AF904B080BCB846F0BD8642EBD9A6
:1030E0000026002700F0FCF832003B00121A8B414A
:1030F000002BE9DD002302930193154B320000936E
:1031000014483B00FFF750FF0028DFDB0023984600
:10311000BC46114A114F7B6A9C4504D8B96A8E425D
:10312000D4D99C45D2D11168EFF3108072B60B68E8
:10313000002BFCD0BFF35F8F1368BFF35F8F414656
:10314000196080F3108820BFE5E7002ABED0D1E7E0
:10315000C52B0010801D0020DC51002000400540E0
:1031600070B5060000F0BCF8FA2204000D00002340
:1031700030000021920002F081FF0019694100290E
:1031800002DBFFF78BFF70BD012001494042F8E7E9
:10319000FFFFFF7F70B5EFF3058305000C0084B0DF
:1031A000002B0AD0164A0020536A9C4203D8926A28
:1031B0000130AA421FD304B070BD124E0293019396
:1031C000114B0200009330000B00FFF7EDFE011ED3
:1031D000E8DD20BF3000FFF70DFD094B0020596AE4
:1031E0008C42E8D89B6A0130AB42E4D2641A631E79
:1031F0009C41E0B2DFE7E41A631E9C41E0B2DAE7EB
:1032000000400540801D0020C52B0010F0B5EFF3F5
:103210000582D6464F4646461000C0B51038EFF33B
:10322000108872B6214C2368002BFCD0BFF35F8F4F
:103230000123190081401E4D1F006963AA461D4DE0
:1032400029601D4D2E78AC463500C5402F402B42DD
:1032500009D1BFF35F8F276088F31088E0BCBA46BE
:10326000B146A846F0BD5346144D5F6A83005D59D0
:10327000AF420ED3124A8E439B5862461670BFF37C
:103280005F8F0022226088F31088002BE6D09847D9
:10329000E4E70C4B92009C46624413681360BFF352
:1032A0005F8F0023236088F31088D7E7280100D0C0
:1032B000004005403C7005401F520020E8510020AE
:1032C000DC490020D03F054010B50100024A034808
:1032D000FFF7E0F810BDC046101F05101A5200207D
:1032E000034B596A0A00986A596A8A42FAD17047B0
:1032F0000040054070B504000D00124A536A1900E1
:10330000966A536A8B42FAD13000190024184D4155
:10331000AB4211D80ED02B000A494A6A9A42FCD31C
:1033200007D1084A02E0516A994202D1916AA1424A
:10333000F9D370BDA642EED9012301246442E517FA
:103340005B42E9E700400540064A536A9942FCD8CF
:1033500007D1044B02E05A6A914202D19A6A824232
:10336000F9D370470040054070B504000D00EFF33D
:10337000108672B61A4A1368002BFCD0BFF35F8F19
:10338000002D1BD02000FFF74FF9164981420AD0CB
:103390002000FFF751F901212000FFF715F9012363
:1033A000A340114A1360114BA400E550BFF35F8F97
:1033B00000220B4B1A6086F3108870BD0B4BA200E5
:1033C000D5500122A2400A4920000B7893430B708C
:1033D0000449FFF74FFA00212000FFF7F5F8E5E771
:1033E000280100D00D32001038600540DC49002073
:1033F0001F520020F0B54F46D6464646C0B50700DE
:103400002C4C616A0D00A66A616AA942FAD18B420E
:1034100008D805D00120E0BCBA46B146A846F0BDA8
:10342000B242F7D9EFF3108A72B623480168002937
:10343000FCD0BFF35F8F0125BD4020491D4C88465D
:10344000097889462943C9B28C46414660460870CE
:10345000391D1B48890065630A51B9000B50216A68
:103460000020294219D0616A0800A66A616A814277
:10347000FAD18B4219D801D1B24216D8CC4516D018
:103480000C4B1F201D625D6301230740BB400D4AAA
:103490001E38136043464A461A70BFF35F8F0022FE
:1034A000054B1A608AF31088B5E70020F5E7012084
:1034B000F3E7C04600400540280100D01F5200201D
:1034C000E851002080E200E0EFF3108C72B60A4968
:1034D0000B68002BFCD0BFF35F8F01238340074AAA
:1034E0000748136202789A430270BFF35F8F00238C
:1034F0000B608CF310887047280100D00040054015
:103500001F52002030B583600023CCB243730133D7
:10351000047342608373C4730D000068012C06D9E4
:10352000421C0133DBB2137003329C42F9D1FF21FC
:1035300029404B005918002340180338437030BD10
:10354000F8B5CE46474606000C0080B5002907D0E6
:103550004D0003686D18033D5A195778002F04D1A8
:103560002000C0BCB946B046F8BD7900C91903397E
:1035700088464344597889460021597051707368D0
:103580003A002100806898473368002827D14246D6
:1035900041465D19AF709A185B5C002B00D06B70D0
:1035A00014703C0049463000FFF7CAFF051ED7D013
:1035B00021002A00B068736898473168002818D045
:1035C0006B005B196200033B1219CB18033A9C7025
:1035D00088188A5C002A00D05A700570C0E74246FD
:1035E0009A18947059195B5D002B00D053700F70BE
:1035F000D8E763001B196A00033B5219CB18033A42
:103600009D7088188A5C002A00D05A7004702C00C3
:10361000A6E7C046F8B54D006D180368033D0E00DF
:10362000595D17000400FFF78BFF002F0CD12368B2
:10363000002805D00021420012189A18033A917010
:1036400000225B195A70F8BDE17B2368002904D081
:103650004A0052189A18033A5670A27B002A00D1E9
:10366000A673E673E4E7C046F8B5467B03687500C9
:10367000AD19033D0F00595D0400FFF761FF002FF6
:103680000ED12368002805D00021420012189A1894
:10369000033A917000225B195A7060733000F8BDD4
:1036A000E17B2368002904D04A0052189A18033A93
:1036B0005670A27B002A00D1A673E673E2E7C046EB
:1036C00070B50400002943D0437B8B4255D0056878
:1036D00048004018033828188278002A38D0530050
:1036E0009B18033BEA5CEE188A4202D134E0002AC0
:1036F00008D053009B18033BEB185A788A42F6D146
:1037000042785A7000230122837043702000FFF733
:1037100081FF667B0500002E17D000281AD002001A
:103720003100A068636898472168002817D06B00B3
:103730005B197200033B9219CB18033A9E708818EC
:103740008A5C002A23D1057035000120657300E0F2
:10375000002070BD3500F8E743783370D2E773007E
:103760009B196A00033B5219CB18033A9D708818C5
:103770008A5C002A08D10670E7E701221900FFF7EA
:1037800049FF60730120E4E75A700670DDE75A7064
:10379000D9E7C046F0B5C646076B04000E00150019
:1037A00000B5FB070CD422008023E16A2C324E4086
:1037B0005B01354013431D60276380BCB846F0BDF4
:1037C0000200C02330329B0113430C4A1A60436A43
:1037D000826A9B0198460620904400F08FF9434688
:1037E00007499B02984601F077FD0100404601F031
:1037F00073FD0021FFF77EFDD5E7C0460103000001
:103800004E0E000070B5040006200D0000F076F9A1
:103810002900C00001F060FDC30906D0104A9342A0
:1038200014D900230F4D104A01E0402501226262A5
:1038300000210022A3622000FFF7ACFF062000F069
:103840005DF92900800001F047FD70BD7F22104026
:10385000013040089D011A002D180300E7E7C0461B
:10386000FEFF0000C0FF3F00FFFF000070B5040036
:1038700006200E0000F042F9051E2FD0184B194902
:10388000E21853425A418023DB039C469205164BB3
:1038900062441A60154B1A6010008B689843FBD184
:1038A0000F4B8021E3185A425341114A5B004900F3
:1038B000995220003100FFF7A5FF6E22050060211C
:1038C0002000FFF767FF220080232C329B01134367
:1038D00010221A60074B23630323A364280070BDE2
:1038E0000080FCBF00C0004000E0004000F000404D
:1038F000F851002001030000F0B5DE464E46574661
:103900004546E0B583B001921A0E93461E020500AB
:1039100000238946300059460C9A01F01BFD374BB5
:103920006C009C466419A4006444636807008342E9
:1039300000D260602B1FDBB29846012B38D9C02320
:1039400080229B01234312011A602D4BAD0059596F
:103950009A46002923D1019A236852015340E0225C
:103960001A4080235B0123431A604246012A38D95A
:10397000802380229B01234312011A6030003A0009
:1039800000235946676001F0E5FC53465851012079
:1039900003B0F0BCBB46B246A946A046F0BD58698C
:1039A00001F09AFC431C5800C0180338FDD2D2E73E
:1039B0004B46012BC3D1C02303229B0123431A6032
:1039C000023AA3681A42FCD0019A236852015A4075
:1039D000E0231A4080235B0123431A60084AAD00AC
:1039E00092464A462168514003220A401A60012249
:1039F0004B469A40A3681A42FCD0B9E700800040C9
:103A0000004B002030B50C2083B000F0F1F8FEF739
:103A100023FD00280BD02D482D4A0100030028313A
:103A200004C38B42FCD12B4B436203B030BD2A4C04
:103A3000A06700F031F90122284B1A60636C012B5A
:103A4000FCD10322264B1A60234A936B012BFCD135
:103A5000013300930121234A2348043300F078F80E
:103A6000052301210093214A214800F071F8214BE0
:103A7000214D174C0093002202210420FFF73CFF48
:103A80002B000022012100950520FFF735FF2300C0
:103A90000022002100940720FFF72EFF23000022C0
:103AA000002100940820FFF727FF0A4B0022009313
:103AB000002123000920FFF71FFF2B000022002117
:103AC00000950620FFF718FFAFE7C046004B002027
:103AD000006CDC021BB70000008000403CB00040DE
:103AE00030B00040002F685900800240008C8647AB
:103AF00000C00240001BB70040597307014B800013
:103B0000C0587047004B0020802270B506000E4C54
:103B10005200A3691D0015401342FAD1FA210B4B44
:103B20008900186901F0D8FB0A2310212060064A99
:103B300023610B3B6560A360666193691942FCD009
:103B4000D069400970BDC04680800040004B002015
:103B5000F8B5040021481D0017000E0001F0BCFB61
:103B60000100380001F0B8FB069B29041B03194330
:103B70002368002B20DB1A4B1A4DE21853425A419E
:103B800080235B019C461203174B62441A60174B5B
:103B90001A601700AB689F43FBD1C022231D92011E
:103BA0001A4321232660A06013602368002BFCDAEF
:103BB0000823E1601360F8BD3F2322681340B3423D
:103BC000D9D1A3681B051B0D8342D4D1EE22E36833
:103BD000D20213408B42CED1EDE7C046001BB700A6
:103BE0000040FDBF00C0004000E0004000F0004089
:103BF0008023024A9B000343D36270470080054044
:103C000010B5140080221B4BD2051A6000281AD070
:103C10000123194A1843194BDA61194A42401A62C2
:103C2000596298628022134BD2051A601549164AD0
:103C30001160E022D2041A60002C07D18022134BBD
:103C400012061A6010BD0D4BD861EBE763011B1B18
:103C50009A008023121912015B049A4200D30C4A85
:103C60000C4B1A60054B5A608022084BD2051A6033
:103C7000E8E7C04600B00540D3C007B0008005406B
:103C80002D3FF84FFCFF01000820014000A0054037
:103C9000FFFFFF00AC4F0020AA23064A1B01136060
:103CA0002F230549D360054B19605368002BFCDABC
:103CB0007047C0460040024000B0FA000060024079
:103CC0002B4B2C4A70B51A602B4A2C4B2C491A608E
:103CD00014008B689C43FBD12A4D2B4EB54208D271
:103CE000013E761BB60808CD984723000134B34245
:103CF000F9D1FFF787FE254A204B1A60204A9368C6
:103D0000DB43DB01DD09002BF9D14022204B214CA4
:103D1000214E9A675A671A67DA66B44208D2236856
:103D20002000002B20D00834FEF70AFFB442F6D35F
:103D30001A4E1B4CC022A168300002F0C9FAA660DE
:103D4000FEF718FCFEF7C0FEFFF7F4F8154C164E10
:103D5000B44208D2013E361BB60808CC98472B0067
:103D600001359E42F9D170BDFEF7DCFE0834D4E780
:103D700000E00040BFCDFBFEFE7F3C0000F00040B5
:103D800000C000400829002018290020FFFFFF0183
:103D900000F0014000290020082900200000002038
:103DA00000ED00E0182900204029002000BEFDE7BA
:103DB000094A03001068002805D00849C3188B423F
:103DC00007D81360704706480449C31810608B4237
:103DD000F7D901204042F5E7A04B00200000042065
:103DE0002452002000207047012040427047C04606
:103DF00010B5FFF7DBFFC04610B50C0082B019000C
:103E0000002A0AD0064B01920093020023000548C5
:103E100001F0BCF90120FFF7C9FF034B1A00F2E7DC
:103E2000341F0510441F0510981805100FB400B575
:103E3000084883B002F0C8FB049B002B07D005A9FB
:103E40001800019101F0C2F9034802F0BDFB012006
:103E5000FFF7ACFF741F0510901E051010B5014848
:103E6000FFF7E4FF841F05109A4200D28854704780
:103E70007047C046F8B557464E464546DE46E0B563
:103E800099460A9B07009A460D9B88469346150063
:103E90000B9E9B0710D10C9B9E420DD29D1B1400C4
:103EA0000E005D4422004B46013431002020B8470B
:103EB000A542F7D1B0460B9E002E27D04446751977
:103EC0005346AA1B013E985D21004B46B847002E81
:103ED000F6D123002C0098460D9B9B070FD55B461F
:103EE000E51A0C9BAB420AD94646984622004B463F
:103EF000310020200135B84701344545F6D3200074
:103F0000F0BCBB46B246A946A046F8BD2C00E3E78C
:103F1000F0B54F464646D646C0B584B098460EAB7F
:103F20001B78129F994694460D9C109B119EBA07D0
:103F300025D4002E4BD19C4200D3C1E001223A404F
:103F400092461F2C00D9BAE00C9A551E302201E08F
:103F5000202C03D001342A55A342F9D85246002A16
:103F60000DD0A6420BD9202C44D00C9A551E3022DD
:103F700001E0202C3ED001342A55B442F9D1FA0692
:103F80004ED57A053FD4002C39D10F9B102B00D190
:103F90007BE00F9B022B00D18CE030230C9A012494
:103FA00013704B46002B40D02D230C9A135501342F
:103FB0000C9B624600930397434602960194FFF7D9
:103FC00059FF04B0E0BCBA46B146A846F0BD012294
:103FD00015003D40AA463A4230D04A46002A02D156
:103FE0000C323A4200D0013E9C42BAD21F2CABD9CF
:103FF000202E28D92024FA06DAD57A0503D4A34244
:104000002ED0A6422CD00F9B102B34D00F9B022B0E
:1040100020D0202CCCD030220C9B1B191A700134DC
:10402000202CC5D04B46002BBED17B070DD43B07BF
:10403000BED520230C9A13550134B9E79C429ED279
:104040001F2C00D880E7202499E72B230C9A1355C6
:104050000134ADE7202CABD00C9B1B1901343BE0A5
:10406000631E012C91D00F9A102A2BD00F9A022A8E
:104070002FD01C00CFE7BB060ED4202C98D00C9B71
:104080001A19013478231370C3E7BB060DD47823C3
:104090000C9A01241370BEE7202C00D188E7582227
:1040A0000C9B1B191A700134B3E758230C9A012496
:1040B0001370B0E70C9A603301241370ABE720242F
:1040C00000265CE7023CBA06E9D40C9A12191C00DF
:1040D000D8E70C9A9246534462221A7099E7C04678
:1040E000F0B54E46DE4657464546E0B593B09B4692
:1040F0001CAB20CB89461B7892461E9E08900993E4
:10410000002D08D11023219A00249A431300219AEC
:104110002193520524D4219A6123920639D402AA0C
:1041200094460A2252421F279046DBB2002467447D
:10413000984408E03033DBB201343B55B5420FD32D
:10414000202C0DD005003100280001F0C5F8CBB2BD
:104150000929EFD94344DBB201343B55B542EFD2D4
:10416000219B52460693209B494605931F9B089826
:104170000493099B039602930AAB009301945B4658
:10418000FFF7C6FE13B0F0BCBB46B246A946A04638
:10419000F0BD4123C3E7C046F0B54E464546DE4676
:1041A0005746E0B595B09B4620AB1B781E9F0B93FE
:1041B000229B1F9D99463B008046239E09910A92AF
:1041C0002B4308D1269A10339A431300269A0024D1
:1041D000269352052CD4269A6123920642D40A22B1
:1041E00052429246DBB200249A440EE01F21303244
:1041F00004ABD2B201345B181A55AE4218D8AE42A5
:1042000032D0202C14D0070065464A4633003800CF
:10421000290001F09FF8D2B28C46092AE6D91F2165
:10422000524404ABD2B201345B181A55AE42E6D9FF
:10423000269B40460693259B0A9A0593249B099941
:1042400004934B4603930B9B019402930CAB009396
:104250005B46FFF75DFE15B0F0BCBB46B246A94613
:10426000A046F0BD4123BAE7B945CAD9E0E7C04648
:10427000F0B5DE4657464E464546E0B591B09A4603
:104280001A9B8B4699461B9B07909846089243467B
:104290004A464846414601F0F0FA002800D0A5E021
:1042A000012248464146D74B524201F0E1FA00282C
:1042B00000D09BE0012248464146D34B524201F0D8
:1042C000C1FA002800D091E0002200234846414670
:1042D00001F0B8FA002800D08BE14E464746802313
:1042E0001E9ADB001A400D921E9A1A4201D1062333
:1042F0001C9333000A960B973B4300D08FE01E9B24
:104300001B0500D563E10023042409931D9B0025B0
:104310009C4200D21D1B02231E9A1A400C921E9A28
:10432000134203D0634263415B421D40099B002B53
:1043300007D00A9A0B9B3000390001F01AFA0600E8
:104340000F00002200234846414601F07BFA002876
:1043500003D0802109067B181F001E9AAB4B0096E4
:1043600001971340079E04931C9B089A03950293A0
:10437000594653463000904600F078F90500002C6D
:1043800045D01E9B2A0098061F23C0179843594604
:1043900053466530B04705230593002309990393DD
:1043A0000A330293CB0F0193CB17C81858406F1CE8
:1043B000013C534600903A00594630000494FFF700
:1043C0008FFE0C9B0500002B21D04346C41A1D9B79
:1043D000A3421CD937001E002A005346594620200C
:1043E0000134B8470135B442F6D310E01E9B4A466B
:1043F00004931D9B594603931C9B079802934346C5
:10440000009201935346089A00F030F90500280005
:1044100011B0F0BCBB46B246A946A046F0BD7C4BED
:1044200078009C46400D604401F03AFA794A7A4B94
:1044300001F0BDF9794A7A4B01F092F9794A3B03D0
:104440001B0B1A4304000D000A981100764B002242
:1044500001F07DF9754A764B01F0A9F902000B00D5
:104460002000290001F07CF901F032FA099001F0F6
:1044700017FA704A704B04000D0001F098F9002201
:104480006E4B01F06DF901F023FA6D4A6D4B290076
:104490000C90200001F08BF904000C980D0001F045
:1044A000FFF9694A694B01F082F902000B00200014
:1044B000290001F04CF902000B0004000D0001F08E
:1044C00076F922002B000A900B912000290001F0C0
:1044D00047F900220E900F910A980B995C4B01F05E
:1044E00048F900225B4B01F03BF902000B000A98EF
:1044F0000B9901F03EF90022574B01F031F902000F
:104500000B000A980B9901F034F90A900B91802165
:1045100022002B000020C90501F019F902000B0050
:104520000A980B9901F01CF902000B000E980F99E4
:1045300001F01FF900223B4B01F012F9474B0C9C94
:104540009C4664442305002201F031F932003B000F
:1045500004000D0001F08CF900282CD10A940B9571
:10456000C624099B63339C42A4411E9B64420434CD
:104570001B0500D4CAE60A9A0B9B1100194328D0E8
:1045800030003900364A374B01F06AF9002807D06D
:10459000002230003900344B01F054F9002818D1C2
:1045A0001C9B002B00D1B1E60D9B5A1E93411C9A17
:1045B000D31A1C93AAE6099B0022013B0993200011
:1045C0002900244B01F0D5F80A900B91C8E700238D
:1045D00009931C9A099B9A4211DDD01A431E1C9321
:1045E00080231E9ADB001A43002300241E920993A5
:1045F0008CE680231B0643444E461F006FE60023D3
:104600001C93EDE7FFFFEF7FFFFFEFFFFFF7FFFFDB
:1046100001FCFFFFFB799F501344D33FB3C8608B6D
:10462000288AC63F0000F03F0000F83F61436F63F7
:10463000A787D23F71A379094F930A400000E03F5A
:104640001655B5BBB16B0240EF39FAFE422EE63F7C
:1046500000002C400000244000001840FF03000030
:104660002D431CEBE2361A3F80842E41F0B54E46B6
:10467000DE4657464546E0B597B09946209E219FB5
:10468000229B8346984607910C923B0032003000F3
:10469000390001F0F2F8002800D0A9E10122300031
:1046A0003900CA4B524201F0CDF8002800D0E1E0B9
:1046B000012230003900C64B524201F0D9F80028DF
:1046C00000D0B7E0002230003900C24B01F0D0F832
:1046D000002800D099E0002230003900BE4B01F0E4
:1046E000B1F8002800D090E000220023300039000B
:1046F00001F0A8F8002800D0B1E000230D93249B1E
:104700005B0501D40623984608AB9C46172200247B
:1047100030234146624404E0013413550139202C12
:1047200001D00929F8D888463000390001F0D0F8C6
:104730004346DA00A94B05009B181A685B6808928B
:10474000099301F0ADF802000B003000390000F0D1
:10475000FEFF089A099B01F02AF80A900B9101F0DC
:10476000DBF8824601F098F802000B000A980B99DA
:1047700000F0EDFF00229A4B0A900B9101F078F8BF
:10478000002800D1C0E001239C46E244504601F0DD
:1047900083F802000B000898099901F059F80028E5
:1047A00002D000239A4601354346002B6AD008AB5D
:1047B00017269C4608956644554614E001235B4243
:1047C00043440A2128009A4600F086FD0134303126
:1047D0003719397028000A2100F07EFD092D00D814
:1047E000D0E0D0460500202CE8D10EAB984603233C
:1047F000249A1340012B00D196E02023249A0193A0
:104800000392239A434602921EE0249B5846049347
:10481000239B00960197039343460C9A02930799B2
:104820004B46FFF725FD17B0F0BCBB46B246A94684
:10483000A046F0BD249B5B070ED40322694B24994C
:104840000192039123990291009358464B460C9A8A
:104850000799FFF70FFBE6E70422634BEFE73B0006
:1048600032000020002100F072FF012306000F003B
:104870000D9344E7249B0393239B0293042301930A
:104880005A4BE1E7280001F00BF802000B00300062
:10489000390000F05CFF524B002206000F0000F0D0
:1048A000D1FF0EAB984600280AD100223000390013
:1048B0004B4B00F0DDFF002802D1EB0700D501359E
:1048C000202C94D008AA94461723280063440A2178
:1048D00001341E1900F0D8FC3031280031700A2153
:1048E00000F0D2FC051EEBD10323249A1340012BC8
:1048F0001BD0202C00D180E70D9B002B35D02D2222
:104900004146631C0A5579E700220A980B99344BFB
:1049100000F098FF002800D046E75346002B51D105
:1049200001239C46E2443FE72024239B002BE0D058
:104930000D9B002B03D1249A0C33134202D0239BEE
:10494000013B2393239BA342D3D908AB9C46172258
:1049500030236244202C00D14FE7239901341355B2
:104960008C42C6D0202CF8D147E7249B5B0724D487
:10497000249A2300120700D440E720224146013345
:104980000A553BE75746089D202C00D12DE7220011
:1049900030214046002F09D00132B154202A00D1E5
:1049A00023E7D3431B191B18002BF5D10EAB9846F8
:1049B0002E234146541C8B5482E72B224146631C14
:1049C0000A551BE7DB0700D4EEE6A9E7FFFFEFFF80
:1049D000FFFFEF7F65CDCD4165CDCDC188210510AD
:1049E0000000E03F901F0510941F0510A01F051048
:1049F000249B0393239B029303230193004B23E700
:104A00009C1F051010B5002800D110BD01F0CEFD8F
:104A1000FBE7C0460B0010B5002802D049681B68B0
:104A2000984710BDF0B55746DE464E464546E0B5C0
:104A300095B01C001E9B91469B46C84AC84B8246B7
:104A40000F1E1A6000D1CFE100232078984600287D
:104A500000D1D1E11E005B460B9309E032004B46CA
:104A60003900751CD0472E000134207800284AD028
:104A70002528F3D110239B460C3B9846023B00228D
:104A80009C460134207825000300203BDBB2102B2C
:104A900003D8B4499B00CB589F460300303B092BF9
:104AA00055D9002398462A2864D000242E283FD0C8
:104AB0000300683BDBB2122B08D8AB499B00CB58F4
:104AC0009F4680235B0068781A4301350300253B2D
:104AD000DBB2532B57D8A5499B00CB589F460123E7
:104AE00001341A43CEE7634601341A43CAE743460A
:104AF00001341A43C6E75B4601341A43C2E7082370
:104B000001341A43BEE7B0463400C14503D801233F
:104B10005B424B4498464B46424639000020D04702
:104B2000200015B0F0BCBB46B246A946A046F0BD79
:104B3000687880230100DB0030391A436B1C092997
:104B400000D85BE12A2800D168E11D00B0E700230E
:104B50009846030041468800401801354000C018BF
:104B60002B7801001800303830390928F3D91800A3
:104B700088469AE70B9B02CB884600290CDB6078BD
:104B80000B93651C91E7731C984632004B46390025
:104B9000D04746466C1C68E702210A434146494219
:104BA000884660780B93651C7FE7782800D16DE11B
:104BB000582800D197E16F2800D158E2622800D12F
:104BC0008CE21023110099430B00692800D0A6E263
:104BD000520500D533E20A220C929A0500D5FEE177
:104BE000DA0500D55FE25A0600D52BE20B9A1100D8
:104BF0001A0600D481E204C98C4612B2D1175018AB
:104C00004840614680B20B910593434604930C9B48
:104C1000D20F039402930192009032004B46390068
:104C20005046FFF75DFA6C1C06001EE780239B00D0
:104C300068781A43013549E76878682800D15EE151
:104C4000802301351A4341E768786C2800D15BE185
:104C500080235B001A43013538E7462800D112E172
:104C600007210B9B0492073342468B4319000294A1
:104C700003920CC95046009201930B9132004B46AF
:104C80003900FFF7F3FC6C1C0600EEE60B9B02CB31
:104C90000B910D93002C00D0C9E00B789C46002BA3
:104CA00000D133E202235B420B990133C8180B0099
:104CB00002E0984200D12DE1597801330029F8D162
:104CC0000B995B1A0C9380231100DB0019400E91A5
:104CD0001A4203D00C9BA34200D90C940223190062
:104CE00011400F91134200D154E16046002800D1D9
:104CF0003BE10B9B32009E1B4346AB46B8460E9DE4
:104D000057460B93B246260000E02200002D04D047
:104D1000731E002E00D101E11E004B464146541C7B
:104D2000B8475346185D0028EFD10B9B5D46BA4645
:104D3000A346474698460F9B002B00D014E10D9BDD
:104D40005E466C1C0B9390E6731C984632004B46F3
:104D500039002520D04746466C1C86E6254A0010BF
:104D6000A84F0020A81F0510EC1F051038200510C3
:104D70000B9B0394984621231A43193B0493083351
:104D80000293002305924246019308CA39009046D7
:104D9000009332004B465046FFF7A2F94346060007
:104DA0006C1C0B9361E6930700D4BEE00B9B3200B2
:104DB00001CB39009B46C0B24B46D0474346741CDA
:104DC0004644012B00D84DE1A846554622004B46EB
:104DD000013439002020A847B442F7D1AA465B46E7
:104DE00045460B936C1C40E6CE4B20789A46002338
:104DF0009846002800D02DE6002486E60100A00099
:104E000000190133400040181978303804000800B8
:104E100030380928F3D908001D0049E60B9BA87813
:104E200010CB0235E143C9170C400B9340E60B9BB6
:104E30001B789C46002B00D167E1631E34E72023DA
:104E400001009943472904D180231B011A430223FF
:104E50009843452801D120231A4307210B9B049234
:104E6000073342468B431900029403920CC9504603
:104E7000009201930B9132004B463900FFF7F8F98D
:104E80006C1C0600F1E520231A43E9E610230C937D
:104E90000C23110099430B0052052DD4692800D131
:104EA0009BE6642800D198E680221800920010400A
:104EB000134200D0E6E0DA0500D512E10B985A065D
:104EC00000D5C8E01A0600D422E104C81204120C6E
:104ED0000B900593434604930C9B03940293002389
:104EE0000092019399E60C231100994314330B436C
:104EF00010210C915205D7D501229343CEE7C02350
:104F0000A8781A430235E1E5C0239B00A8781A432C
:104F10000235DBE50B9BC31A0C93D4E60B9B5D4675
:104F2000BA4693464746984605E74346012B00D8C4
:104F3000F3E0741E4444A846554632004B46013601
:104F400039002020A847A642F7D1AA4645460B9B28
:104F5000220001CB39009846C0B24B46D0474346A9
:104F6000661C0B936C1C80E55E460C9A904534D908
:104F700043469B199B1AA8461C00554632004B46D7
:104F8000013639002020A847A642F7D1AA46A346F9
:104F90004546D4E60C9A531C904500D8BBE04346E6
:104FA0009B199B1A9B465346A2465C46AB461D0086
:104FB00032004B46013639002020A847A642F7D1DF
:104FC000434601330C930B9B54461B78AA469C46E0
:104FD0005D466046002800D08BE6B346AFE6082168
:104FE00007208C460B9A07328243944405CA0893E3
:104FF000434607930C9B6146049300230593D30F0C
:105000000293D317109311930B910694109B119C4C
:105010001900414012912100514013911299139AA5
:10502000C91AA24113000A0000920193390032000C
:105030004B465046FFF7B0F86C1C060015E50A22F7
:105040000C9259E70B9A01CA9446FF22614602402E
:1050500010000B91D8E504C89446FF2261460B90DE
:105060000A4036E75B4626000B936C1CFDE40823E0
:105070000C9313001A00642800D009E75A0500D4E5
:10508000ABE539E70893434607200B9A07930C9B3F
:105090000732824304930023110006940593029380
:1050A0000CC90B91C0E70B9A110004C90593434644
:1050B0008B4604930C9B03940293D30F0193D31755
:1050C000D2185A4000924B46320039005046FFF742
:1050D00007F85B4606000B936C1CC6E402230C9396
:1050E000C7E70593434604930C9B0B9A03940293E2
:1050F000019008CA93460093E5E704C98C46D1178E
:105100005018484061460B917EE500230C93DAE588
:1051100004C80B90DDE60C935BE7340017E70A2226
:105120000C92A7E7713E00100EB4012210B585B0B5
:1051300007AC08CC01000094524204480394FFF7E6
:1051400071FC05B010BC08BC03B01847693E0010E4
:1051500000B583B0009313000A0001000248FFF776
:1051600061FC03B000BDC046693E001000B585B0CB
:105170000391012102900093034813004A4202A9BF
:10518000FFF750FC05B000BD154A00100FB410B574
:105190000C4984B006AA08CA0C680392002C0BD0F4
:1051A000009201220848524202A9A047012004B0FF
:1051B00010BC08BC04B01847180001F005FA002024
:1051C000F5E7C046A84F0020054A001010B5094A6F
:1051D0000300146884B0002C08D001220091064816
:1051E000524203A9A047012004B010BD01F0ECF920
:1051F0000020F9E7A84F0020054A001001480421CB
:10520000014B1847B01D002045520010014B5B6850
:1052100018470000B01D0020014B9B681847000094
:10522000B01D0020142310B50100188804331B881A
:10523000984710BD162310B50100188802331B884B
:10524000984710BDF8B54746CE4680B50F1E19D019
:1052500014239946043304000025012698464B4642
:105260001888434621681B88984701C4431E98410B
:10527000013540420640AF42F1D13000C0BCB946D2
:10528000B046F8BD0126F8E7124A936F9B0815D285
:105290009066D166002905D0FFE7FFE7FFE7516F71
:1052A000106F704704B580210906C21751400028CD
:1052B00000D0C8434CF014F9002104BDF0B5146EC1
:1052C000556E576F166FFFF7E3FF14665566576705
:1052D0001667F0BD000000D0114A936F9B0813D2EF
:1052E00010665166002905D0FFE7FFE7FFE7516F21
:1052F000106F704704B5002801D00020C0434CF067
:10530000EFF8002104BDC046F0B5146E556E576F1E
:10531000166FFFF7E5FF1466556657671667F0BD11
:10532000000000D094464A4A926F9208624601D229
:1053300028E0C046F0B5464E346E756E776F366F16
:1053400000F020F89446424A14665566576716677F
:105350006246F0BD94463E4A926F9208624601D280
:1053600054E0C046F0B53A4E346E756E776F366FC6
:1053700000F04CF89446364A14665566576716672F
:105380006246F0BD002B24DB11D000293EDA00B5C7
:10539000C943404200D1013100F038F8C9434042CE
:1053A00000D10131DB43524200D1013300BD002A5C
:1053B000EBD1002801D1002905D00020C90FC90771
:1053C00001D1C043410800B54CF04AF80022002347
:1053D00000BD00B500290ADBDB43524200D1013396
:1053E00000F014F8C943404200D1013100BDC94367
:1053F000404200D10131DB43524200D1013300F081
:1054000005F8DB43524200D1013300BD002923D10E
:10541000002B18D1002A0CD0BC460D4F38667A6696
:1054200000210023FFE7FFE7FFE77A6F386F674649
:105430007047002801D00748010000B54CF010F873
:105440000022002300BD02000B0000200021704755
:10545000000000D0FFFFFFFF002B00D0BFE0130CC7
:1054600028D1002AE7D080B4114F39667A66FFE769
:10547000FFE730B4040C7B6F396F1B0423433B669A
:105480007A66FFE7FFE7FFE7C04684B27B6F3D6FB8
:105490001B0423433B667A66FFE7FFE7C046002311
:1054A0002C042D0C7A6F386F00196941B0BC70471D
:1054B000000000D0F0B594460025140E01D1120270
:1054C0000835140F01D112010435940F01D1920057
:1054D0000235D40F01D152000135D40B0134254FD0
:1054E0007C66254C3C660E0C93B2FFE7FFE7FFE7B6
:1054F0003C6F6643360C7703BE467343DF0B5B0499
:10550000C01AB941130C7343DB18C91ACE0866439D
:10551000360CB64493B273431F0F1B01C01AB94136
:10552000130C73431F0B1B05C01AB941860D8F0264
:105530003E436643360C092D24DB520A7243801A1F
:105540007703460A6643360C16235B1BDE40DF40BA
:10555000BF1964466643821B70460435063301005A
:10556000D940A840C01900D30131A24206D200237D
:10557000F0BD0000000000D0FFFFFFFF121B013054
:10558000F3D3F1E709277F1BFE406446A2B27243C2
:10559000801A00D20139220C7243130C1204821AB1
:1055A00099410B007046043513370100F940A840BB
:1055B000801900D30131002B02D1A2420AD2F0BDE2
:1055C000013000D30131121BFAD2013BF8D1A242C3
:1055D00000D2F0BD013000D30131121BF7E7F0B566
:1055E0001C0C00D080E00CB400251C0A04D11B0266
:1055F000160E3343120208351C0B04D11B01160F83
:105600003343120104359C0B04D19B00960F3343A6
:1056100092000235DC0B02D192185B4101351C006F
:10562000971864410134464F7C66464C3C660E0C2C
:10563000FFE7FFE7FFE7C0463C6F6643360C7703A2
:10564000BE4697B27743C01B00D20139C01B00D2BF
:1056500001399FB27743C91BC91B170C77437E04DE
:10566000FF0B801BB941CE086643360C0C2D33DB93
:10567000B644120B1F053A431B0B97B27743C01B6E
:1056800000D201399FB27743C91B170C77433E0400
:105690003F0C801BB941860D8F023E43664329278C
:1056A0007F1BFE400C3D7746AF40BF1930BCA2B215
:1056B000ABB272437343801A9941220C7243130CAC
:1056C0001204801A994102000B000137001BA94106
:1056D000F9D2781E0021F0BD0C277F1BFE407746D3
:1056E0007F0BAF40FF19E0E700245D1C07D0144F8B
:1056F0007D663966FFE7FFE7FFE7FFE73C6F95B29E
:105700009EB265436643401BB141150C1E0C6543B8
:10571000664336042F0C3E432D04401BB141994291
:1057200004D202000B0020000021F0BD01D1904204
:10573000F7D3801A994101349942F2D3F6E7000079
:10574000000000D0FFFFFFFF48404140484018B430
:105750001B4B5B68FC46019308BD04DF4B5A0010ED
:1057600018B4174B1B68FC46019308BD00DF555A5F
:1057700000109446134A926F920809D2624618B4F8
:105780000F4BDB68FC46019308BD0CDF0D5D00107C
:105790000C4AF0B5146E556E576F166F6246FFF7E0
:1057A000EEFF084A1466556657671667F0BD18B4D1
:1057B000034B9B68FC46019308BD08DFB15B0010FA
:1057C000D84F0020000000D0FFB55040424050406C
:1057D00059404B40594000E0FFB5154F4C00640D57
:1057E00003D0BC4204D10C0314D80020090D0905D4
:1057F0005C00640D03D0BC4204D11C030AD8002213
:105800001B0D1B0501264B4009D44B4003D58B4291
:1058100000D18242FFBD9942FCD19042FFBD0B43B3
:10582000DB1803431343F5D0C9434918FFBD0000FB
:10583000FF07000000B5FFF7CFFF01D0002000BD3B
:10584000012000BD00B5FFF7C7FF804100BDC04685
:1058500000B5FFF7C1FF01D9002000BD012000BD48
:1058600000B5FFF7B1FF01D9002000BD012000BD48
:1058700000B5FFF7A9FF804100BD012040054A00A7
:10588000121804D85A00121801D8002070470120BD
:1058900070470020704700000021002805D17047A4
:1058A000C1174840401AFAD0C90713B5064B1B6808
:1058B00098470CBC441CA2401005120B0349091B5D
:1058C00009051943114310BDD85000201F040000E2
:1058D00010B54C00620D8023D218DB00D21A5B0594
:1058E0007E2A10DD9E3A13DACC17090349081943C2
:1058F0005242D140640001341532202A05DAD040EA
:105900000843604310BD002010BD0846604310BD31
:10591000C80FC018013810BD18B4044B5B6AFC46B0
:10592000019308BD24DFBD5E00100000D84F0020A9
:1059300018B4044BDB6DFC46019308BD5CDFC95F06
:1059400000100000D84F0020C94211D300B5490013
:105950004908002200F018F8002904D4002240422F
:105960008A41114600BD80210906002000BD0000CB
:1059700018B4044BDB6EFC46019308BD6CDFCB5EB4
:1059800000100000D84F002018B4044B9B6FFC4659
:10599000019308BD78DFE75E00100000D84F0020BB
:1059A00018B4044BDB6FFC46019308BD7CDF555FE8
:1059B00000100000D84F0020132370B51C78012C74
:1059C00015D010DD0F48FFF735FC0F4D0100802288
:1059D000280000F07DFC022C06D00C48FFF722FCCA
:1059E0000B4B186070BD084D0A4AAA64F5E7064DD6
:1059F000084A29002B00803104C38B42FCD1AA64E1
:105A0000EBE7C04653440000D84F00204C33000061
:105A1000D8500020195A001007B5604601880A0ABC
:105A20000230DF2AFAD1C9B2820804D30288408842
:105A30000004104300E00068014A5050039007BD85
:105A4000D84F00200FB403BC0CBCF0B50124E40710
:105A5000634000E0F0B50C0DCF0F661E3605891BC4
:105A6000640503D3C943404200D30131640D03D020
:105A7000661CF60A07D0E41B00207F00791C89070A
:105A80008912803C24031D0DDF0F6E1E36059B1B03
:105A90006D0503D3DB43524200D301336D0D03D0B8
:105AA0006E1CF60A07D0ED1B00227F007B1C9B07B3
:105AB0009B12803D2D032F1B661B58D4A446202E1D
:105AC00046DA20371400BC401D00BD40F24033418F
:105AD0002A4380185941CB0F05D0C943C043002247
