:020000041000EA
:1000000000B5324B212058609868022188439860DF
:10001000D860186158612E4B002199600221596106
:100020000121F02299502B49196001219960352056
:1000300000F044F80222904214D00621196600F024
:1000400034F8196E01211966002018661A6600F04E
:100050002CF8196E196E196E052000F02FF8012189
:100060000842F9D1002199601B49196000215960AB
:100070001A491B48016001219960EB211966A021F2
:10008000196600F012F800219960164914480160C1
:100090000121996001BC002800D000471248134993
:1000A000086003C880F30888084703B5996A0420EC
:1000B0000142FBD001200142F8D103BD02B5186610
:1000C0001866FFF7F2FF186E186E02BD00000240BE
:1000D000000000180000070000035F00212200005C
:1000E000F4000018222000A00001001008ED00E03C
:1000F00000000000000000000000000074B24E7A12
:1001000000200420F7010010C3010010C5010010F9
:10011000C1010010C1010010C1010010C101001097
:10012000C1010010C1010010C1010010C701001081
:10013000C1010010C1010010C9010010CB01001065
:10014000CD010010CD010010CD010010CD01001037
:10015000CD010010CD010010CD010010CD01001027
:10016000CD010010CD010010CD010010CD01001017
:10017000CD010010CD010010CD010010CD01001007
:10018000CD010010CD010010CD010010CD010010F7
:10019000CD010010CD010010CD010010CD010010E7
:1001A000CD010010CD010010CD010010CD010010D7
:1001B000CD010010CD010010CD010010CD010010C7
:1001C00000BE00BE00BE00BE00BE00BEEFF3058054
:1001D000103800BEF2EB8871ACBE0610D4BE06101B
:1001E0003402001090A31AE700201F49086006C8D7
:1001F00081F3088810471D48006800282FD10DA4FE
:100200000ECC002902D000F012F8F9E71849194A7B
:10021000002000E001C19142FCD1174988471749ED
:1002200088471749884700BEFDE701C901C29A42C5
:10023000FBD37047D4BE0610C00000204029002028
:1002400054E70610000004200000042054E70610C4
:10025000001004200010042000000000704709482E
:1002600003F0F4FF0047000008ED00E0000000D0BC
:100270004029002024520020E92C0010791200109F
:10028000192E00105756000006005250ABB36053B1
:100290008010051006005250861C030290100510B5
:1002A000060052505422A29DC40B05100500525066
:1002B000DE65F46854E70610F8B5C04610B5064C84
:1002C0002378002B07D1054B002B02D0044800E017
:1002D00000BF0123237010BD482A00200000000049
:1002E000A8060510044B10B5002B03D003490448A1
:1002F00000E000BF10BDC046000000004C2A0020F6
:10030000A8060510F0B5551A83B006000C001700BA
:1003100001950F2D0FD80068BC4206D00023E25C87
:10032000C2540133AB42FAD130680022019B7360A2
:10033000C25403B0F0BD002201A92DF0ABFC019B1B
:100340003060B360E8E7C04610B5040001680C48AF
:1003500005F0F8F9A1690B4805F0F4F9216B0A489A
:1003600005F0F0F93423E35C002B07D10749084876
:1003700005F0E8F9074805F03BF910BD0649F6E736
:10038000B8060510C8060510DC060510B0060510F5
:1003900028070510F0060510A8060510F0B5DE4682
:1003A00057464E4645468346E0B58B48FDB005F0BE
:1003B0001FF9594666A80EF021F86699874805F09E
:1003C000C1F9669868AB984204D0689B591C0293A7
:1003D00004F0A8FF594625A80EF072F8289B029356
:1003E000002B28D1942202AB9B181B78002B01D143
:1003F00000F0EAFB259804F063FA0022784B04F041
:10040000EAF90022764B04F0E6F9269C02000B0084
:10041000744805F097F9200004F052FA0022704B5E
:1004200004F0D9F900226E4B04F0D5F902000B005C
:100430006D4805F087F90A2005F0CCF86B4805F007
:10044000D7F868ABCC2166930123490002AA6793D1
:1004500052182E3313802FA8594666AA10F0F6F8CA
:10046000669868AB984204D0689B591C029304F0CC
:1004700059FF339B0293002B00D07BE3C02202ABD9
:100480009B181B78002B00D19EE3309D2F9CAC4223
:1004900005D020003834FFF757FFA542F9D1544862
:1004A00005F0A6F8534C68AB2200669303CA03C359
:1004B0001278A2211A70092367930023FF3102AA40
:1004C0005218137050A8594666AA0EF0A9FC6698F7
:1004D00068AB984204D0689B591C029304F022FF39
:1004E0005F9B0293002B0FD19C2202A9520038334C
:1004F0008918CB5C002B00D166E3342302A98A184B
:10050000D35C002B00D09FE245AB47AD98462B0053
:10051000459506CC06C3227866A81A704246092380
:1005200053600023594653740EF01EFC4598A842B0
:1005300004D043469B68591C04F0F4FE669B002BD4
:1005400000D17DE2679B2C481900029305F0FAF870
:10055000679869AB984204D0699B591C029304F0D8
:10056000E1FE264805F044F807AB05933D23002241
:1005700066A905A866932DF08DFB669B3D22204958
:100580000793059004F0B8FE0022669B0599069338
:10059000CA5401F0B9FE002900D177E2FA22002303
:1005A000920003F0EBFE0400092C00D8FEE2632C5D
:1005B00000D856E2FA239B009C4200D202E3114B82
:1005C0009C4200D8FCE2104B200099460F4B0126BC
:1005D0009A460F4F28E0C046F40605101C07051088
:1005E0000000503F3407051048070510600705104C
:1005F00090070510AC070510040805101C0805102D
:10060000380805100F2700003F420F007F96980022
:100610009F8601004D4500D8B3E2554500D8B5E2AC
:10062000DA4B9D4200D8B3E2D949050003F068FED9
:1006300031000436BD42EDD80022310068AB66932C
:1006400066A82DF045FB669B0293679B5E1E039395
:10065000029B013E9C46CF4B66449946CE4B9A4640
:100660002000642103F04CFE20004D00642103F0C3
:1006700047FE4B465B195B78270073704B465B5D0A
:1006800004003370023E5745EAD8FA239B009F428C
:1006900000D3F1E1029B30341C70679B66991A000D
:1006A00005A802932DF062FD669868AB984204D0CD
:1006B000689B591C029304F035FE68AB66931323C4
:1006C0000022414666A845932DF0E4FAB34C459BC1
:1006D000132221006893669004F00EFE0023459AD1
:1006E0006699679217A88B540093594605AB66AA82
:1006F0000EF044FD669868AB984204D0689B591C84
:10070000029304F00FFE179B002B00D0A2E1A44837
:1007100004F06EFFA34804F06BFF68AB66931323ED
:100720000022414666A845932DF0B4FA459B13225A
:1007300021006893669004F0DFFD0022459B6699D6
:1007400067933AA8CA54594666AA0EF0A1FF669864
:1007500068AB984204D0689B591C029304F0E2FDF8
:100760003E9B0293002B00D0FDE1EC2202AB9B18D4
:100770001B78002B00D127E268AB3B9A3A9966A818
:100780006693FFF7BFFD6699874804F0DBFF669824
:1007900068AB984204D0689B591C029304F0C2FDD8
:1007A000824804F025FF1323002266A9404647AD86
:1007B000669345952DF06EFA4346669A2100459062
:1007C0009A60132204F098FD4246669B4599536057
:1007D000002266A8CA54424659460EF021FB4598AD
:1007E000A84204D043469B68591C04F09BFD759BAE
:1007F0000293002B0BD1C82102AA490038335218AA
:10080000D35C002B00D1DFE166A8FFF79DFD6848AF
:1008100004F0EEFE1123002241460DAE0BA84593D5
:100820000B962DF037FA0027459B112261490D9355
:100830000B9004F061FD459B0B9A0C93D754132346
:1008400000221EA940461E9345952DF023FA4346EB
:100850001E9A210045909A60132204F04DFD4246F5
:100860001E9B1EA85360459A5946D7540123424601
:1008700000930BAB0EF082FC4598A84204D043468F
:100880009B68591C04F04EFD1E9D002D4CD14A481A
:1008900004F0AEFE13230022414613AF11A8459386
:1008A00011972DF0F7F9459B132221001393119016
:1008B00004F022FD459B119A404612935946D554A7
:1008C00011AA0EF0E5FE1198B84204D0139B591CF2
:1008D000029304F027FD43461B69002B15D14346C4
:1008E0001B7B002B00D16FE1469A459911A8119707
:1008F000FFF708FD1199314804F024FF1198B84220
:1009000003D01399013104F00DFD434658694CABF7
:10091000984204D04346DB69591C04F003FD43466A
:100920001B7B002B00D035E11F9821AB984203D0F0
:100930002199013104F0F6FC0B98B04203D00D99D7
:10094000013104F0EFFC769878AB984204D0789BA4
:10095000591C029304F0E6FCC821382302AA49007E
:100960005218D25C002A00D0BCE03F9841AB9842BC
:1009700004D0419B591C029304F0D4FCEC2202AB3E
:100980009B181B78002B00D09EE019E0FFE0F505D6
:1009900010270000800C05100F27000078080510B4
:1009A0008C080510D00805106C0905100409051005
:1009B0001C090510380905104C09051060090510BF
:1009C00018981AAB984203D01A99013104F0AAFC86
:1009D000059807AB984203D00799013104F0A2FCB7
:1009E000609862AB984204D0629B591C029304F059
:1009F00099FC9C21382302AA49005218D25C002A93
:100A00004AD1349836AB984204D0369B591C029395
:100A100004F088FCC02202AB9B181B78002B00D08E
:100A200079E029982BAB984203D02B99013104F03F
:100A300079FC7DB0F0BCBB46B246A946A046F0BDED
:100A4000624804F0D5FD83E5614804F0D1FD45AB73
:100A5000984686E5189B5F481900029304F072FEE1
:100A600058E668AB0022022166A866932DF030F9A3
:100A7000669B0293584B99464B4664001B195B7862
:100A8000029A53704B461B5D137006E6FA218900EB
:100A900003F036FC040087E59C200022400002A9F8
:100AA00009185698CA5458AB984204D0589B591C00
:100AB000029304F037FC509852AB9842A1D052995F
:100AC000013104F02FFC9CE7EC21002302AA3A98A4
:100AD00052181370002800D172E73C99091A04F0EB
:100AE00021FC6DE7C8200022400002A909186C987B
:100AF000CA546EAB984204D06E9B591C029304F00A
:100B000011FC669868AB984200D12EE768990131D4
:100B100004F008FC29E7C021002302AA2F9C309D85
:100B200052181370AC4215D02300A06920339842AC
:100B300003D0236A591C04F0F5FB23002068083316
:100B4000984203D0A368591C04F0ECFB3834A5424A
:100B5000EAD12F9D002D00D163E731992800491B70
:100B600004F0E0FB5DE73F9B1C481900029304F092
:100B7000E9FD15E6349B1A481900029304F0E2FDE2
:100B80008DE468AB00226693053159E58E1D53E56F
:100B9000CE1D51E50023424645981373002800D12D
:100BA000C2E69168091A04F0BDFBBDE668AB0022FD
:100BB000012166A866932DF08BF8669B029369E588
:100BC000042639E5032637E540F0FAFEE407051070
:100BD000B8070510B8080510800C0510EC080510C2
:100BE00078070510F0B5DE4657464E464546E0B557
:100BF000774C0600A5440390764804F0F9FC02A95E
:100C0000FF228C46C0ABD2006244BE939A461023AA
:100C100014001360BEAB0022210018002DF03AF83A
:100C2000236810226C49C093BE9004F065FB02AAB1
:100C3000944600222368BE9DBF93EA5480231B0183
:100C40006344AC2723609B460123FF006360674435
:100C500076333800238131002300BEAA0EF0D6FB84
:100C60002068584503D0A368591C04F05BFBBE986C
:100C7000504504D0C09B591C029304F053FB9E23A3
:100C80009B00FE58002E00D0F1E19C239B00FB5CF2
:100C9000002B00D101E2390022A80DF083FC5DE0B9
:100CA00023608368A3606B68636043462B60002306
:100CB0006B602B726268494B9B1A0A2B00D8E9E1E2
:100CC0000B22200046492DF051FA0822904607AB2E
:100CD00005939946036880440500434572D0059307
:100CE000836807936B68069343462B6000232B723F
:100CF00020686B60584503D0A368591C04F012FBB0
:100D0000BE98504504D0C09B591C029304F00AFBC6
:100D100005AA22A90BA80DF023FE0D9B0293002B20
:100D200064D1282202AB9B181B78002B00D1B4E1C0
:100D300031000B9A2B4804F005FD0E9810AB984239
:100D400003D01099013104F0EDFA0598484503D01D
:100D50000799013104F0E6FA0A2E5AD001360A2E1C
:100D600022D153462D220221BEA8BE932CF0B0FF03
:100D70003022BE9B5A7001321A7004230022009365
:100D80000021194BBEA82DF02DF908225B46904694
:100D90002360036880440500434581D1414658469D
:100DA000083204F0A9FA7EE753462D220121BEA89D
:100DB000BE932CF08DFFBE9B02933300029A30331A
:100DC0001370DAE741464846083204F095FA89E79D
:100DD00064F5FFFF80090510A4090510FFFFFF3F20
:100DE000F0090510140A0510D00905103100AC48AF
:100DF00004F0A8FC0E9810AB984203D01099013172
:100E000004F090FA0598484503D00799013104F0A1
:100E100089FA200022A90DF0D5FD02AA9446A14B23
:100E200060686344984203D0E368591C04F07AFA7E
:100E300022A80DF0E9FB9C4804F0DAFB02A9FF228E
:100E40008C461023D20014AD6244136021000022AE
:100E5000280016AE14962CF01DFF02AAFF2394461C
:100E6000DB0063441B68102290491490AB6004F0CF
:100E700043FA02AAFF2394460022DB0063441B6866
:100E800014996B60CA545346BE21BE936246012337
:100E90008900BF9352187133138020002A000399F0
:100EA000BEAB0EF0B3FABE98504504D0C09B591C9F
:100EB000029304F037FA1498B04203D0AB68591C7F
:100EC00004F030FA9E239B00E358002B61D19C2351
:100ED0009B00E35C002B00D1DFE02100BEA80DF0F9
:100EE00061FB734804F084FB1EAB984600239946CF
:100EF0002800BEA90DF09EFBEB69002B23D12B7EB1
:100F0000002B00D1C9E06B68002B1CD0286804F0CE
:100F10006FFB286A404503D0AB6A591C04F002FA03
:100F20002B7E002BE4D04B4628682B76B042DFD0D6
:100F3000AB68591C04F0F6F92800BEA90DF07AFB45
:100F4000EB69002BDBD0286A1EAB984203D0AB6A5A
:100F5000591C04F0E7F92B7E002B00D08FE0BEA8CF
:100F60000DF052FBBEA80DF04FFBBC21952302AA49
:100F700089009B005218D05802AA94464D4B6344F6
:100F8000984206D09723BEAA9B00D158013104F0A5
:100F9000C9F99F2302AA94469B00E058464B63443C
:100FA000984205D0A1239B00E158013104F0BAF921
:100FB0009C239B00E25C002A44D122A80DF024FB74
:100FC0009523802202A99B008918C858B9AB984282
:100FD00007D0972302A99B008A18D158013104F049
:100FE000A1F99F239B00F85802AA9446334B63440F
:100FF000984205D0A1239B00F958013104F092F9E1
:101000009C239B00FA5C002A07D12D4B9D44F0BC29
:10101000BB46B246A946A046F0BD00223800FA54AD
:101020000DF0F2FA952302AA94469B00F858254B3E
:1010300063449842E9D097239B00F958013104F0AA
:1010400071F9E2E700222000E2540DF0DDFA952369
:1010500002AA94469B00E0581B4B63449842ACD0D4
:1010600097239B00E158013104F05CF9A5E79F2428
:10107000A4003959154804F065FB3859B4E700233A
:1010800014982B76B04200D169E7A968013104F0C9
:1010900049F964E70E4822F00DFA40F091FCC04691
:1010A000FC09051004080000380A0510A409051001
:1010B0004C0A05104C0500007C0A0000E407000003
:1010C0009C0A0000BC070000540A0000B809051083
:1010D000D809051030B504009FB0614804F088FAC3
:1010E0001023002208A915AD13A8089313952CF01E
:1010F000D1FD089B10225B491593139004F0FCF876
:101100000022089B1399149308A8CA54210013AA1B
:101110000EF0BEFA1398A84204D0159B591C0193F7
:1011200004F000F90C9A002A45D11023002213A9DB
:1011300004AD02A8139302952CF0ACFD139B102272
:1011400049490493029004F0D7F80022139B0299B6
:10115000039313A8CA54210002AA0FF077FA029849
:10116000A84203D00499013104F0DCF8179B0193E5
:10117000002B00D06CE018981AAB984204D01A9B50
:10118000591C019304F0CEF8502202AB9B181B7837
:10119000002B36D10D980FAB984204D00F9B591CF1
:1011A000019304F0BFF8242202AB9B181B78002B9C
:1011B0001AD11FB030BD0D9B2C481900019304F0CB
:1011C000C1FA0C9B13A8190001930CF01BFF139993
:1011D000274804F0B7FA1398A842A6D0159B591CCB
:1011E000019304F09FF8A0E72421002302AA0898A5
:1011F000521813700028DCD00A99091A04F092F8EA
:10120000D7E75021002302AA139C149D5218137093
:10121000AC4215D02300A0692033984203D0236A42
:10122000591C04F07FF8230020680833984203D04B
:10123000A368591C04F076F83834A542EAD1139D0E
:10124000002DA7D015992800491B04F06BF8A1E7E1
:10125000189B08481900019304F074FA8BE7C04604
:10126000640A0510800A0510D00A0510940A0510BA
:10127000BC0A0510E40A0510F0B53A4CA544052453
:1012800004F06CFA384804F0B3F9384E384D2100B8
:10129000300004F057FA2B68013C986840F05CFD80
:1012A000FA20800000F070FF002CF0D1314804F0EB
:1012B0009FF9314C200004F09BF9304804F098F974
:1012C00020000B2404F094F92D4804F091F92D4AE4
:1012D0002D492E4804F036FA2D4804F089F910946F
:1012E00002341194033C1294023413940DA80B3C65
:1012F00004776C46274B2849284A0F930D910E928C
:1013000010A8E0C8E0C460C860C40CF0FFFE244828
:1013100004F06EF915A906A80DF024F8069B002B21
:101320000BD007991F4804F00DFA1F4804F060F92C
:10133000FA20800000F028FFFAE71C4804F058F972
:1013400015A8FFF72BF815A8FFF74CFC15A8FFF719
:10135000C1FE174804F04CF9FA20800000F014FF99
:10136000FAE7C0461CFDFFFFFC0A0510240B051020
:10137000EC1E0020400B0510580B0510840B0510C7
:10138000A40B0510B80B0510C40B0510D00B0510ED
:10139000E80B0510005A620200C00340801A0600E4
:1013A000140C05102C0C0510480C0510580C0510D9
:1013B000700C051010B502480FF070FD10BDC0464E
:1013C0001C450020094A830094464022634410B51E
:1013D0001C68C0006240C0241440802252011343A4
:1013E0001C60034B9C466044416010BD04C001403A
:1013F00000400140094B80009C464B1E99416044CF
:10140000C900002A01D00423194303684B400C2172
:10141000194080235B0118430160704704C00140FC
:10142000074BC0009C466044036809025940C02332
:101430009B00194080235B01184301607047C04640
:10144000044001400123D02283401206936293613D
:10145000094A83009446402263441968C0004A4008
:10146000C02111408022520113431960034B9C4656
:10147000052360444360704704C0014000400140C0
:10148000024B18688007C00F7047C04600C0064076
:10149000EFF3108072B6034A1368002BFCD0BFF341
:1014A0005F8F70472C0100D0BFF35F8F0022024B8B
:1014B0001A6080F3108870472C0100D070B5EFF3EC
:1014C000108C72B60D4D2B68002BFCD0BFF35F8FD4
:1014D0000724CB08C618C05C01230C40A3401C00A5
:1014E0000440034207D103433370BFF35F8F2C6086
:1014F0008CF3108870BD100001F0ACFC2C0100D002
:10150000F8B54746CE46884680B5EFF3108C72B6E4
:10151000214D2C68002CFCD0BFF35F8F9A422CD851
:10152000D4080727055D061901241740BC402C424A
:101530001FD007210127894609E0D408055D061957
:101540004C4639001440A1400C00294211D0013210
:101550009342F2D201204042BFF35F8F00220E4B34
:101560001A608CF3108800280FDBC0BCB946B04667
:10157000F8BD2C4310003470EEE7BFF35F8F0023FB
:101580002B608CF31088012040424346002BECD0A6
:10159000089801F05FFCC0462C0100D00021044BEC
:1015A000044ABFF35F8F02C39342FAD17047C0462B
:1015B000000100D0800100D0044A1078431CDBB247
:1015C000172B00D9102313707047C046341D00201C
:1015D00000B5054B83B00100009318221F23034878
:1015E000FFF78EFF03B000BD4C0D0510FC4A002034
:1015F00001238340002904D0034A1360034A136087
:101600007047034A1360FBE780E200E000E100E07E
:1016100080E100E001238340014A13607047C04627
:1016200000E200E0084B10309B688000C358002B9C
:1016300007D0064A00209B1A2F229A424041C0B28E
:1016400070470020FCE7C04600ED00E0381D002098
:10165000024B10309B688000C058704700ED00E0DE
:1016600070B50D00EFF3108672B60F4A1368002BA9
:10167000FCD0BFF35F8F0D4B10309B6884001B596B
:101680000B4A934203D09D4201D001F0FBFB074B74
:101690009B681D51BFF35F8FBFF35F8F0022024B2A
:1016A0001A6086F3108870BD240100D000ED00E0C0
:1016B000CD010010F0B557464E46DE464546E0B532
:1016C00085B0060002911700EFF3108B72B6674ADF
:1016D0001368002BFCD0BFF35F8F0025644B5D5770
:1016E0009A46002D00DAA4E06B00624C03935B196C
:1016F0009B009846A146C1444B4652469B79103602
:1017000013705D4BB2009B68019299580B1B2F2BF5
:1017100034D95A4B994200D0A4E0039B584A9C46C6
:10172000584B6544AD006353434602336519E418D2
:10173000554B0121043B1B1B1B055B0D13436B80A9
:10174000524BEF71AB80FF23AB71029BAB604B46FA
:101750000B431900484B019A9B689950BFF35F8F68
:10176000BFF35F8F0022414B1A608BF3108805B0E6
:10177000F0BCBB46B246A946A046F0BD01200A0017
:101780008243D379BB422FD845464E461300404989
:101790001B1B5B415943090D3A4B63533A4B0235CE
:1017A0006519043B5B1B1B05354D5B0D2B4373809B
:1017B0000426B446E0444444131F1B1B4C46A1714D
:1017C00002991B05A16049465B0D2B43A380314B59
:1017D000E77101431360BDE75800C018800020186E
:1017E000C679BE422BD902000623D356002BF3DA6A
:1017F000101D82462848804604267642B446E144BD
:1018000050464E46361A3005400D824656461C4814
:10181000957106439680039A944665441D4AAD002F
:10182000641922604246A371029BA280E771A36003
:1018300090E701F027FB002553465D5754E7101D44
:10184000824690884005001584464046D44466464A
:1018500004302018301AE0260005400D36023043CF
:101860008046C9E701F00EFB57E7C046240100D0CF
:101870001B520020381D002000ED00E0CD010010BB
:1018800000E0FFFF00A1FFFF681D002001BDFFFF7A
:10189000AAAA00000148804701BD0000F0B5DE465D
:1018A00057464E464546E0B50C0083B0EFF310892D
:1018B00072B6584A1368002BFCD0BFF35F8F564BAB
:1018C0009A68030010339F00D559544A90469542B8
:1018D00032D0A54243D0524EAA1B2F2A2CD8012227
:1018E0008240924651464F4A12681140019151463A
:1018F0004D4A1160BFF35F8FEFF305829346002AD4
:1019000033D101232A009A4393689C4208D177E09F
:101910004B005B189B00F3189968A1422AD01A006B
:10192000062151560029F3DA019B002B19D05246AB
:101930003E4B1A603B4B1A60374B9B68DD51BFF33F
:101940005F8FBFF35F8F0022324B1A6089F31088DC
:1019500003B0F0BCBB46B246A946A046F0BD150098
:10196000EAE75246304B1A60E6E79342C9D001F0ED
:1019700089FAC6E706215956002921DB4A0050188A
:10198000800034188046A0689860E079D8710620FD
:1019900020569871002824DBA488F01A64052415C9
:1019A00044440019E0240005400D2402204398809F
:1019B00052181F4B9200B6181A781970B271B3E71B
:1019C000594600290FD1FF3191711A499180184968
:1019D0000A789A71184A9B1B5B415A43120D0A7090
:1019E000A2E71648E3E7164A1649D21A083A500207
:1019F000400D01439980144952080A43DA8093E765
:101A00000621515613000029B8DA5A46002AEAD1B5
:101A10004546DCE7240100D000ED00E0CD010010D8
:101A2000381D002000E100E080E100E080E200E0FD
:101A30001B52002001BDFFFFAAAA000001BD00004B
:101A4000721D002000F0FFFF00F8FFFFF0B5EFF37C
:101A50000584C646012600B50643EFF3108C72B626
:101A60001C4A1368002BFCD0BFF35F8F1A4FA400F1
:101A7000BB681A4D1B590200984619490023521B96
:101A800052415143090D2A0049B2B04515D00624F0
:101A900014578C4215D001330C32042BF7D1114B63
:101AA0001A7819708271BFF35F8F0022094B1A6098
:101AB0008CF3108880BCB846F0BDBB680A4A1A5146
:101AC000EDE75A00D3189B00ED18FF23AB71074BCD
:101AD000AB80E4E7240100D000ED00E0381D0020D9
:101AE000AAAA00001B520020CD01001001BDFFFF7B
:101AF000054B064A1360064A136053609360D36037
:101B000013615361936170478080808000E400E03E
:101B100004E400E000B5074B83B00100009300220D
:101B200005230548FFF7ECFC002801DB1F23181AEA
:101B300003B000BD680D051020520020024B9C46EA
:101B400061448900016070474000003410B5040012
:101B5000FFF732FD01002000FFF7F0FFFF232371A4
:101B6000BFF35F8F10BDC04610B50400FFF724FD22
:101B700001002000FFF7E2FFFF23A380BFF35F8F88
:101B800010BDC04610B504000120FFF721FD044B35
:101B90009C46604480002060BFF35F8F10BDC0464C
:101BA00040000034034B9C46614489000160BFF350
:101BB0005F8F70474000003483680B4810B584463F
:101BC00061446244090112019A18591854684B681B
:101BD00001209C4201D802D00020C0B210BD126882
:101BE0000B689A42F9D8F7E7FFFFFF0F0A4B196815
:101BF000EFF3108072B60A68002AFCD0BFF35F8F43
:101C00001B68BFF35F8F00221A6080F3108840BF0B
:101C1000002000217047C046DC51002070B54268AA
:101C20000400EFF3108572B61368002BFCD0BFF3ED
:101C30005F8F2068CEB2437BB3420AD0FF230B40B4
:101C40005A00D318026894466344033B9B78002BE8
:101C500013D0FF230A0A0B40E168D2B28C466344DA
:101C6000013B197891420ED000206368BFF35F8F6B
:101C700000221A6085F3108870BD22699142F3D169
:101C800000202361F1E7310000F02EFDEDE7C046B2
:101C9000F8B557464E464546DE46E0B599460CAB8C
:101CA0001D780DAB1B78060090469A460768002DFC
:101CB0003BD02B006C003A686419033C1119374A79
:101CC0009446B2686344944642461B0163441A60DA
:101CD0004A465A600A9A9A600B9ADA6000238B701F
:101CE0004B700B707B7B9B46002B3ED02A005946E5
:101CF000B8687B6898473A6800282AD05B465846FF
:101D00005B005B441419033BA070D118D35C002B1B
:101D100040D15B460D7028007B73AB4526D0F0BCEC
:101D2000BB46B246A946A046F8BDB87B0028F6D00F
:101D300044003A682418033C11194A780300BA7326
:101D4000002A00D1FA73002205008A704A700A70D6
:101D5000B5E75B465B005B44033BD3189D701119EC
:101D6000125D002A18D15B460B707D7342464B46CC
:101D7000307D00F053FB041E06D05346002B03D1E8
:101D80002900306800F0B0FC0E9B2800002BC6D064
:101D90001C70C4E76370BCE75A70E4E7FFFFFF0FF5
:101DA000F0B5DE4657464E4645460023E0B58BB0BB
:101DB0000893674B8200D45800239B46099000F09B
:101DC000A3FA626806000F00EFF3108572B613687D
:101DD000002BFCD0BFF35F8F23689C465B7B99464A
:101DE000002B00D169E0A2685A4B90464B441B017E
:101DF000984443461A685B6810001900801BB9417B
:101E0000002900DC63E0099800F008FB00230022B1
:101E1000984600230692079300239A466368BFF30F
:101E20005F8F5A461A6085F310885346002B08D1FD
:101E30000028C4D10BB0F0BCBB46B246A946A046B0
:101E4000F0BD089B414618024B461843D0476268D4
:101E500006000F00EFF3108572B61368002BFCD05C
:101E6000BFF35F8F002F50DB33003B4302D0236969
:101E7000002B61D12368D97B002907D04A00521872
:101E800019688C4649466244033A51709A7B002A8D
:101E900001D14A469A734A46DA734B46E168013BE0
:101EA000CA5C0132CA545B4623616368BFF35F8F2B
:101EB0005A461A6085F3108881E70023002298466D
:101EC000002306920793002300209A46A6E70029E4
:101ED00002D1002800D096E70021604600F0D8FB30
:101EE00043461A685B680692079343469B689A4686
:101EF0004346DB689846E3684B44013B1B780893F4
:101F00001B0203432361002088E72369002BB1D023
:101F1000069A079B921BBB41002B15DB5946049187
:101F20000121039149460291414601915146200009
:101F30000091FFF7ADFEB6E700F0E6F932003B0096
:101F400012184B41002BE9DA0122034B5242E5E71C
:101F5000BC4F0020FFFFFF0FFFFFFF7F10B5144CA9
:101F60006368002B04D00A211248FFF7E7FD10BD7B
:101F70002300114A1021206800F0D8FA032000F055
:101F8000B7F9032000F0B4FA03200C4900F000FA7E
:101F9000FFF712FB0A4B9C4603232375D0231B0635
:101FA0001B6860446375074B80006060DC60DAE7A3
:101FB000801D0020DC510020B91B0010A11D001065
:101FC00040000034BC4F002000487047801D0020B6
:101FD000F0B54546DE4657464E46E0B58BB01D008F
:101FE000149B80469B46159B14009A4616AB1B78A3
:101FF00002AA079300239946D37743465A68EFF322
:10200000108672B61368002BFCD0BFF35F8F02AA54
:1020100094461F23634404934B4603930293534611
:1020200001935B462200009340462B00FFF730FEF1
:102030000023002804D04346DB681B18013B1B78B3
:1020400042465268BFF35F8F4946116086F310889D
:1020500000282FD002AAD27F002A08D11B021843E1
:102060000BB0F0BCBB46B246A946A046F0BD079BEC
:10207000002B1DD051460020D847030006000F005A
:102080000B4315D0002907DAA41BBD41002DB4DA9B
:1020900001240A4D6442B0E700F036F934003D00F7
:1020A00024184D41002DA8DA0124044D6442A4E710
:1020B0000020D5E701204042D2E7C046FFFFFF7F66
:1020C000407D7047F0B504000D0006267642F717F4
:1020D000C64636196F4100B584B08F4214D811D06E
:1020E00000F012F932003B00121A8B41002B15DC74
:1020F000002B3ED02000290000F03AF904B080BC4B
:10210000B846F0BD8642EBD90026002700F0FCF867
:1021100032003B00121A8B41002BE9DD00230293B1
:102120000193154B3200009314483B00FFF750FF1A
:102130000028DFDB00239846BC46114A114F7B6A1A
:102140009C4504D8B96A8E42D4D99C45D2D1116835
:10215000EFF3108072B60B68002BFCD0BFF35F8FDB
:102160001368BFF35F8F4146196080F3108820BF6A
:10217000E5E7002ABED0D1E7ED1B0010801D00204E
:10218000DC5100200040054070B5060000F0BCF8AE
:10219000FA2204000D00002330000021920002F01A
:1021A00081FF00196941002902DBFFF78BFF70BD39
:1021B000012001494042F8E7FFFFFF7F70B5EFF3D0
:1021C000058305000C0084B0002B0AD0164A0020BD
:1021D000536A9C4203D8926A0130AA421FD304B0CA
:1021E00070BD124E02930193114B02000093300018
:1021F0000B00FFF7EDFE011EE8DD20BF3000FFF70A
:102200000DFD094B0020596A8C42E8D89B6A0130C9
:10221000AB42E4D2641A631E9C41E0B2DFE7E41AE9
:10222000631E9C41E0B2DAE700400540801D0020BB
:10223000ED1B0010F0B5EFF30582D6464F4646463B
:102240001000C0B51038EFF3108872B6214C236827
:10225000002BFCD0BFF35F8F0123190081401E4D7E
:102260001F006963AA461D4D29601D4D2E78AC469E
:102270003500C5402F402B4209D1BFF35F8F276047
:1022800088F31088E0BCBA46B146A846F0BD534674
:10229000144D5F6A83005D59AF420ED3124A8E43DC
:1022A0009B5862461670BFF35F8F0022226088F34E
:1022B0001088002BE6D09847E4E70C4B92009C4630
:1022C000624413681360BFF35F8F0023236088F3B9
:1022D0001088D7E7280100D0004005403C70054039
:1022E0001F520020E8510020DC490020D03F05406B
:1022F00010B50100024A0348FFF7E0F810BDC046E0
:10230000900D05101A520020034B596A0A00986A72
:10231000596A8A42FAD170470040054070B50400FE
:102320000D00124A536A1900966A536A8B42FAD119
:102330003000190024184D41AB4211D80ED02B00AB
:102340000A494A6A9A42FCD307D1084A02E0516A14
:10235000994202D1916AA142F9D370BDA642EED949
:10236000012301246442E5175B42E9E70040054090
:10237000064A536A9942FCD807D1044B02E05A6AD4
:10238000914202D19A6A8242F9D3704700400540D7
:1023900070B504000D00EFF3108672B61A4A136888
:1023A000002BFCD0BFF35F8F002D1BD02000FFF768
:1023B0004FF9164981420AD02000FFF751F9012157
:1023C0002000FFF715F90123A340114A1360114BB8
:1023D000A400E550BFF35F8F00220B4B1A6086F319
:1023E000108870BD0B4BA200D5500122A2400A49B3
:1023F00020000B7893430B700449FFF74FFA00213C
:102400002000FFF7F5F8E5E7280100D0352200109D
:1024100038600540DC4900201F520020F0B54F46CF
:10242000D6464646C0B507002C4C616A0D00A66A28
:10243000616AA942FAD18B4208D805D00120E0BCDC
:10244000BA46B146A846F0BDB242F7D9EFF3108ABA
:1024500072B6234801680029FCD0BFF35F8F0125C5
:10246000BD4020491D4C8846097889462943C9B298
:102470008C46414660460870391D1B4889006563DB
:102480000A51B9000B50216A0020294219D0616A13
:102490000800A66A616A8142FAD18B4219D801D13B
:1024A000B24216D8CC4516D00C4B1F201D625D637E
:1024B00001230740BB400D4A1E38136043464A467D
:1024C0001A70BFF35F8F0022054B1A608AF31088E1
:1024D000B5E70020F5E70120F3E7C04600400540DE
:1024E000280100D01F520020E851002080E200E0C7
:1024F000EFF3108C72B60A490B68002BFCD0BFF3C7
:102500005F8F01238340074A0748136202789A438A
:102510000270BFF35F8F00230B608CF3108870474D
:10252000280100D0004005401F52002030B58360D4
:102530000023CCB243730133047342608373C473CA
:102540000D000068012C06D9421C0133DBB2137068
:1025500003329C42F9D1FF2129404B005918002336
:1025600040180338437030BDF8B5CE4647460600E4
:102570000C0080B5002907D04D0003686D18033D9D
:102580005A195778002F04D12000C0BCB946B04674
:10259000F8BD7900C91903398846434459788946FA
:1025A00000215970517073683A0021008068984783
:1025B0003368002827D1424641465D19AF709A180A
:1025C0005B5C002B00D06B7014703C0049463000FF
:1025D000FFF7CAFF051ED7D021002A00B068736834
:1025E00098473168002818D06B005B196200033BE4
:1025F0001219CB18033A9C7088188A5C002A00D004
:102600005A700570C0E742469A18947059195B5D7C
:10261000002B00D053700F70D8E763001B196A00BD
:10262000033B5219CB18033A9D7088188A5C002A24
:1026300000D05A7004702C00A6E7C046F8B54D00D3
:102640006D180368033D0E00595D17000400FFF785
:102650008BFF002F0CD12368002805D000214200F9
:1026600012189A18033A917000225B195A70F8BD3B
:10267000E17B2368002904D04A0052189A18033AD3
:102680005670A27B002A00D1A673E673E4E7C04629
:10269000F8B5467B03687500AD19033D0F00595D21
:1026A0000400FFF761FF002F0ED12368002805D03A
:1026B0000021420012189A18033A917000225B1907
:1026C0005A7060733000F8BDE17B2368002904D0A4
:1026D0004A0052189A18033A5670A27B002A00D179
:1026E000A673E673E2E7C04670B50400002943D044
:1026F000437B8B4255D005684800401803382818A2
:102700008278002A38D053009B18033BEA5CEE180D
:102710008A4202D134E0002A08D053009B18033BC0
:10272000EB185A788A42F6D142785A700023012277
:10273000837043702000FFF781FF667B0500002E49
:1027400017D000281AD002003100A06863689847AB
:102750002168002817D06B005B197200033B9219A7
:10276000CB18033A9E7088188A5C002A23D1057022
:1027700035000120657300E0002070BD3500F8E7EA
:1027800043783370D2E773009B196A00033B5219F8
:10279000CB18033A9D7088188A5C002A08D106700D
:1027A000E7E701221900FFF749FF60730120E4E722
:1027B0005A700670DDE75A70D9E7C046F0B5C646D4
:1027C000076B04000E00150000B5FB070CD42200B7
:1027D0008023E16A2C324E405B01354013431D607B
:1027E000276380BCB846F0BD0200C02330329B0195
:1027F00013430C4A1A60436A826A9B01984606207A
:10280000904400F08FF9434607499B02984601F037
:1028100077FD0100404601F073FD0021FFF77EFDCA
:10282000D5E7C046010300004E0E000070B504005D
:1028300006200D0000F076F92900C00001F060FDCF
:10284000C30906D0104A934214D900230F4D104AF1
:1028500001E040250122626200210022A3622000E3
:10286000FFF7ACFF062000F05DF92900800001F0C1
:1028700047FD70BD7F221040013040089D011A00C5
:102880002D180300E7E7C046FEFF0000C0FF3F0031
:10289000FFFF000070B5040006200E0000F042F9B2
:1028A000051E2FD0184B1949E21853425A41802374
:1028B000DB039C469205164B62441A60154B1A6066
:1028C00010008B689843FBD10F4B8021E3185A42CC
:1028D0005341114A5B004900995220003100FFF733
:1028E000A5FF6E22050060212000FFF767FF220090
:1028F00080232C329B01134310221A60074B236361
:102900000323A364280070BD0080FCBF00C000400A
:1029100000E0004000F00040F851002001030000FA
:10292000F0B5DE464E4657464546E0B583B00192C7
:102930001A0E93461E0205000023894630005946B0
:102940000C9A01F01BFD374B6C009C466419A400E7
:10295000644463680700834200D260602B1FDBB2CF
:102960009846012B38D9C02380229B0123431201B2
:102970001A602D4BAD0059599A46002923D1019A6E
:10298000236852015340E0221A4080235B01234315
:102990001A604246012A38D9802380229B012343B2
:1029A00012011A6030003A0000235946676001F0B6
:1029B000E5FC53465851012003B0F0BCBB46B2467B
:1029C000A946A046F0BD586901F09AFC431C580086
:1029D000C0180338FDD2D2E74B46012BC3D1C02328
:1029E00003229B0123431A60023AA3681A42FCD0D7
:1029F000019A236852015A40E0231A4080235B0168
:102A000023431A60084AAD0092464A462168514065
:102A100003220A401A6001224B469A40A3681A42D8
:102A2000FCD0B9E700800040004B002030B50C20FE
:102A300083B000F0F1F8FEF723FD00280BD02D48FD
:102A40002D4A01000300283104C38B42FCD12B4BDB
:102A5000436203B030BD2A4CA06700F031F9012277
:102A6000284B1A60636C012BFCD10322264B1A60A1
:102A7000234A936B012BFCD1013300930121234A9C
:102A80002348043300F078F8052301210093214AFC
:102A9000214800F071F8214B214D174C0093002282
:102AA00002210420FFF73CFF2B00002201210095AA
:102AB0000520FFF735FF23000022002100940720A6
:102AC000FFF72EFF23000022002100940820FFF7CB
:102AD00027FF0A4B00220093002123000920FFF763
:102AE0001FFF2B000022002100950620FFF718FF92
:102AF000AFE7C046004B0020006CDC021BB70000B3
:102B0000008000403CB0004030B00040002F6859C9
:102B100000800240008C864700C00240001BB700C6
:102B200040597307014B8000C0587047004B00208C
:102B3000802270B506000E4C5200A3691D0015409E
:102B40001342FAD1FA210B4B8900186901F0D8FB26
:102B50000A2310212060064A23610B3B6560A360B5
:102B6000666193691942FCD0D069400970BDC046C6
:102B700080800040004B0020F8B5040021481D0073
:102B800017000E0001F0BCFB0100380001F0B8FB9B
:102B9000069B29041B0319432368002B20DB1A4BD7
:102BA0001A4DE21853425A4180235B019C4612039E
:102BB000174B62441A60174B1A601700AB689F43AB
:102BC000FBD1C022231D92011A4321232660A0605D
:102BD00013602368002BFCDA0823E1601360F8BD62
:102BE0003F2322681340B342D9D1A3681B051B0DB4
:102BF0008342D4D1EE22E368D20213408B42CED17D
:102C0000EDE7C046001BB7000040FDBF00C000401C
:102C100000E0004000F000408023024A9B00034394
:102C2000D36270470080054010B5140080221B4B12
:102C3000D2051A6000281AD00123194A1843194BEB
:102C4000DA61194A42401A62596298628022134B33
:102C5000D2051A601549164A1160E022D2041A60A2
:102C6000002C07D18022134B12061A6010BD0D4BA9
:102C7000D861EBE763011B1B9A0080231219120134
:102C80005B049A4200D30C4A0C4B1A60054B5A6005
:102C90008022084BD2051A60E8E7C04600B0054024
:102CA000D3C007B0008005402D3FF84FFCFF010066
:102CB0000820014000A00540FFFFFF00AC4F0020AE
:102CC000AA23064A1B0113602F230549D360054B35
:102CD00019605368002BFCDA7047C0460040024080
:102CE00000B0FA00006002402B4B2C4A70B51A600D
:102CF0002B4A2C4B2C491A6014008B689C43FBD147
:102D00002A4D2B4EB54208D2013E761BB60808CD9F
:102D1000984723000134B342F9D1FFF787FE254AD3
:102D2000204B1A60204A9368DB43DB01DD09002B4E
:102D3000F9D14022204B214C214E9A675A671A67DD
:102D4000DA66B44208D223682000002B20D0083471
:102D5000FEF70AFFB442F6D31A4E1B4CC022A168FC
:102D6000300002F0C9FAA660FEF718FCFEF7C0FEBC
:102D7000FFF7F4F8154C164EB44208D2013E361B4C
:102D8000B60808CC98472B0001359E42F9D170BD9A
:102D9000FEF7DCFE0834D4E700E00040BFCDFBFEC8
:102DA000FE7F3C0000F0004000C0004008290020E9
:102DB00018290020FFFFFF0100F00140002900203A
:102DC000082900200000002000ED00E01829002064
:102DD0004029002000BEFDE7094A030010680028D2
:102DE00005D00849C3188B4207D8136070470648BE
:102DF0000449C31810608B42F7D901204042F5E71F
:102E0000A04B002000000420245200200020704726
:102E1000012040427047C04610B5FFF7DBFFC046B7
:102E200010B50C0082B01900002A0AD0064B01929E
:102E3000009302002300054801F0BCF90120FFF7D0
:102E4000C9FF034B1A00F2E7B40D0510C40D0510BD
:102E5000F80A05100FB400B5084883B002F0C8FBAB
:102E6000049B002B07D005A91800019101F0C2F9BD
:102E7000034802F0BDFB0120FFF7ACFFF40D051085
:102E80001807051010B50148FFF7E4FF040E051000
:102E90009A4200D2885470477047C046F8B55746EA
:102EA0004E464546DE46E0B599460A9B07009A46DF
:102EB0000D9B8846934615000B9E9B0710D10C9BDB
:102EC0009E420DD29D1B14000E005D4422004B4615
:102ED000013431002020B847A542F7D1B0460B9EFF
:102EE000002E27D0444675195346AA1B013E985D13
:102EF00021004B46B847002EF6D123002C009846FF
:102F00000D9B9B070FD55B46E51A0C9BAB420AD97C
:102F10004646984622004B46310020200135B847EE
:102F200001344545F6D32000F0BCBB46B246A94665
:102F3000A046F8BD2C00E3E7F0B54F464646D6461E
:102F4000C0B584B098460EAB1B78129F9946944644
:102F50000D9C109B119EBA0725D4002E4BD19C428C
:102F600000D3C1E001223A4092461F2C00D9BAE0BA
:102F70000C9A551E302201E0202C03D001342A5532
:102F8000A342F9D85246002A0DD0A6420BD9202CD4
:102F900044D00C9A551E302201E0202C3ED0013442
:102FA0002A55B442F9D1FA064ED57A053FD4002C01
:102FB00039D10F9B102B00D17BE00F9B022B00D14E
:102FC0008CE030230C9A012413704B46002B40D028
:102FD0002D230C9A135501340C9B624600930397E2
:102FE000434602960194FFF759FF04B0E0BCBA468D
:102FF000B146A846F0BD012215003D40AA463A421E
:1030000030D04A46002A02D10C323A4200D0013E6A
:103010009C42BAD21F2CABD9202E28D92024FA06E4
:10302000DAD57A0503D4A3422ED0A6422CD00F9B2A
:10303000102B34D00F9B022B20D0202CCCD0302250
:103040000C9B1B191A700134202CC5D04B46002B49
:10305000BED17B070DD43B07BED520230C9A135558
:103060000134B9E79C429ED21F2C00D880E720246F
:1030700099E72B230C9A13550134ADE7202CABD0E4
:103080000C9B1B1901343BE0631E012C91D00F9A5D
:10309000102A2BD00F9A022A2FD01C00CFE7BB0694
:1030A0000ED4202C98D00C9B1A190134782313705D
:1030B000C3E7BB060DD478230C9A01241370BEE736
:1030C000202C00D188E758220C9B1B191A70013460
:1030D000B3E758230C9A01241370B0E70C9A6033BD
:1030E00001241370ABE7202400265CE7023CBA06FB
:1030F000E9D40C9A12191C00D8E70C9A9246534452
:1031000062221A7099E7C046F0B54E46DE46574631
:103110004546E0B593B09B461CAB20CB89461B7857
:1031200092461E9E08900993002D08D11023219AE3
:1031300000249A431300219A2193520524D4219A02
:103140006123920639D402AA94460A2252421F27CA
:103150009046DBB200246744984408E03033DBB289
:1031600001343B55B5420FD3202C0DD00500310062
:10317000280001F0C5F8CBB20929EFD94344DBB2EE
:1031800001343B55B542EFD2219B52460693209B1A
:10319000494605931F9B08980493099B0396029345
:1031A0000AAB009301945B46FFF7C6FE13B0F0BC78
:1031B000BB46B246A946A046F0BD4123C3E7C04680
:1031C000F0B54E464546DE465746E0B595B09B46BF
:1031D00020AB1B781E9F0B93229B1F9D99463B00A3
:1031E0008046239E09910A922B4308D1269A1033D8
:1031F0009A431300269A0024269352052CD4269A2B
:103200006123920642D40A2252429246DBB2002443
:103210009A440EE01F21303204ABD2B201345B1865
:103220001A55AE4218D8AE4232D0202C14D0070026
:1032300065464A4633003800290001F09FF8D2B2B3
:103240008C46092AE6D91F21524404ABD2B201347C
:103250005B181A55AE42E6D9269B40460693259B3D
:103260000A9A0593249B099904934B4603930B9B5D
:10327000019402930CAB00935B46FFF75DFE15B023
:10328000F0BCBB46B246A946A046F0BD4123BAE712
:10329000B945CAD9E0E7C046F0B5DE4657464E46C6
:1032A0004546E0B591B09A461A9B8B4699461B9BC2
:1032B00007909846089243464A464846414601F0E0
:1032C000F0FA002800D0A5E0012248464146D74B3D
:1032D000524201F0E1FA002800D09BE0012248466A
:1032E0004146D34B524201F0C1FA002800D091E090
:1032F000002200234846414601F0B8FA002800D0D9
:103300008BE14E46474680231E9ADB001A400D9201
:103310001E9A1A4201D106231C9333000A960B977A
:103320003B4300D08FE01E9B1B0500D563E10023CB
:10333000042409931D9B00259C4200D21D1B0223DF
:103340001E9A1A400C921E9A134203D063426341A4
:103350005B421D40099B002B07D00A9A0B9B300053
:10336000390001F01AFA06000F0000220023484637
:10337000414601F07BFA002803D0802109067B1822
:103380001F001E9AAB4B009601971340079E0493B3
:103390001C9B089A03950293594653463000904669
:1033A00000F078F90500002C45D01E9B2A009806F5
:1033B0001F23C0179843594653466530B04705232D
:1033C00005930023099903930A330293CB0F0193CA
:1033D000CB17C81858406F1C013C534600903A0068
:1033E000594630000494FFF78FFE0C9B0500002B1C
:1033F00021D04346C41A1D9BA3421CD937001E008E
:103400002A005346594620200134B8470135B442BA
:10341000F6D310E01E9B4A4604931D9B5946039326
:103420001C9B079802934346009201935346089AC7
:1034300000F030F90500280011B0F0BCBB46B246E0
:10344000A946A046F0BD7C4B78009C46400D6044E8
:1034500001F03AFA794A7A4B01F0BDF9794A7A4B90
:1034600001F092F9794A3B031B0B1A4304000D004B
:103470000A981100764B002201F07DF9754A764BCF
:1034800001F0A9F902000B002000290001F07CF9ED
:1034900001F032FA099001F017FA704A704B0400FB
:1034A0000D0001F098F900226E4B01F06DF901F06A
:1034B00023FA6D4A6D4B29000C90200001F08BF926
:1034C00004000C980D0001F0FFF9694A694B01F006
:1034D00082F902000B002000290001F04CF90200E3
:1034E0000B0004000D0001F076F922002B000A9079
:1034F0000B912000290001F047F900220E900F9156
:103500000A980B995C4B01F048F900225B4B01F0E3
:103510003BF902000B000A980B9901F03EF90022DA
:10352000574B01F031F902000B000A980B9901F09A
:1035300034F90A900B91802122002B000020C9054C
:1035400001F019F902000B000A980B9901F01CF91F
:1035500002000B000E980F9901F01FF900223B4B5F
:1035600001F012F9474B0C9C9C4664442305002251
:1035700001F031F932003B0004000D0001F08CF93C
:1035800000282CD10A940B95C624099B63339C42D6
:10359000A4411E9B644204341B0500D4CAE60A9A67
:1035A0000B9B1100194328D030003900364A374BA5
:1035B00001F06AF9002807D0002230003900344BAE
:1035C00001F054F9002818D11C9B002B00D1B1E662
:1035D0000D9B5A1E93411C9AD31A1C93AAE6099B71
:1035E0000022013B099320002900244B01F0D5F86B
:1035F0000A900B91C8E7002309931C9A099B9A42F1
:1036000011DDD01A431E1C9380231E9ADB001A433F
:10361000002300241E9209938CE680231B0643445A
:103620004E461F006FE600231C93EDE7FFFFEF7F80
:10363000FFFFEFFFFFF7FFFF01FCFFFFFB799F504C
:103640001344D33FB3C8608B288AC63F0000F03FC5
:103650000000F83F61436F63A787D23F71A37909E8
:103660004F930A400000E03F1655B5BBB16B0240D6
:10367000EF39FAFE422EE63F00002C4000002440C5
:1036800000001840FF0300002D431CEBE2361A3FF8
:1036900080842E41F0B54E46DE4657464546E0B59D
:1036A00097B09946209E219F229B8346984607917A
:1036B0000C923B0032003000390001F0F2F8002893
:1036C00000D0A9E1012230003900CA4B524201F07A
:1036D000CDF8002800D0E1E0012230003900C64BCF
:1036E000524201F0D9F8002800D0B7E000223000A3
:1036F0003900C24B01F0D0F8002800D099E0002238
:1037000030003900BE4B01F0B1F8002800D090E045
:10371000002200233000390001F0A8F8002800D072
:10372000B1E000230D93249B5B0501D4062398464A
:1037300008AB9C461722002430234146624404E033
:10374000013413550139202C01D00929F8D88846B5
:103750003000390001F0D0F84346DA00A94B0500EB
:103760009B181A685B680892099301F0ADF8020093
:103770000B003000390000F0FEFF089A099B01F0B1
:103780002AF80A900B9101F0DBF8824601F098F8D4
:1037900002000B000A980B9900F0EDFF00229A4BF3
:1037A0000A900B9101F078F8002800D1C0E00123C5
:1037B0009C46E244504601F083F802000B00089852
:1037C000099901F059F8002802D000239A460135E2
:1037D0004346002B6AD008AB17269C4608956644E2
:1037E000554614E001235B4243440A2128009A46CF
:1037F00000F086FD013430313719397028000A2174
:1038000000F07EFD092D00D8D0E0D0460500202C28
:10381000E8D10EAB98460323249A1340012B00D124
:1038200096E02023249A01930392239A434602921E
:103830001EE0249B58460493239B00960197039314
:1038400043460C9A029307994B46FFF725FD17B0A4
:10385000F0BCBB46B246A946A046F0BD249B5B0720
:103860000ED40322694B249901920391239902916A
:10387000009358464B460C9A0799FFF70FFBE6E773
:103880000422634BEFE73B0032000020002100F0F0
:1038900072FF012306000F000D9344E7249B03935E
:1038A000239B0293042301935A4BE1E7280001F084
:1038B0000BF802000B003000390000F05CFF524BA7
:1038C000002206000F0000F0D1FF0EAB9846002842
:1038D0000AD10022300039004B4B00F0DDFF0028F8
:1038E00002D1EB0700D50135202C94D008AA9446CC
:1038F0001723280063440A2101341E1900F0D8FC64
:103900003031280031700A2100F0D2FC051EEBD1C5
:103910000323249A1340012B1BD0202C00D180E7D5
:103920000D9B002B35D02D224146631C0A5579E7AB
:1039300000220A980B99344B00F098FF002800D021
:1039400046E75346002B51D101239C46E2443FE712
:103950002024239B002BE0D00D9B002B03D1249A25
:103960000C33134202D0239B013B2393239BA3429E
:10397000D3D908AB9C46172230236244202C00D1B7
:103980004FE72399013413558C42C6D0202CF8D12F
:1039900047E7249B5B0724D4249A2300120700D412
:1039A00040E72022414601330A553BE75746089D30
:1039B000202C00D12DE7220030214046002F09D0D5
:1039C0000132B154202A00D123E7D3431B191B181D
:1039D000002BF5D10EAB98462E234146541C8B5438
:1039E00082E72B224146631C0A551BE7DB0700D404
:1039F000EEE6A9E7FFFFEFFFFFFFEF7F65CDCD41CB
:103A000065CDCDC1081005100000E03F100E051077
:103A1000140E0510200E0510249B0393239B029384
:103A200003230193004B23E71C0E051010B500285B
:103A300000D110BD01F0CEFDFBE7C0460B0010B574
:103A4000002802D049681B68984710BDF0B557465A
:103A5000DE464E464546E0B595B01C001E9B91469D
:103A60009B46C84AC84B82460F1E1A6000D1CFE160
:103A7000002320789846002800D1D1E11E005B4643
:103A80000B9309E032004B463900751CD0472E00DD
:103A90000134207800284AD02528F3D110239B46F2
:103AA0000C3B9846023B00229C46013420782500BE
:103AB0000300203BDBB2102B03D8B4499B00CB584A
:103AC0009F460300303B092B55D9002398462A28EE
:103AD00064D000242E283FD00300683BDBB2122BB9
:103AE00008D8AB499B00CB589F4680235B00687881
:103AF0001A4301350300253BDBB2532B57D8A549A8
:103B00009B00CB589F46012301341A43CEE76346FE
:103B100001341A43CAE7434601341A43C6E75B46F9
:103B200001341A43C2E7082301341A43BEE7B04602
:103B30003400C14503D801235B424B4498464B46B1
:103B4000424639000020D047200015B0F0BCBB46EB
:103B5000B246A946A046F0BD687880230100DB008C
:103B600030391A436B1C092900D85BE12A2800D19F
:103B700068E11D00B0E70023984603004146880035
:103B8000401801354000C0182B780100180030386B
:103B900030390928F3D9180088469AE70B9B02CBE5
:103BA000884600290CDB60780B93651C91E7731C39
:103BB000984632004B463900D04746466C1C68E7B1
:103BC00002210A4341464942884660780B93651CAE
:103BD0007FE7782800D16DE1582800D197E16F2860
:103BE00000D158E2622800D18CE2102311009943E1
:103BF0000B00692800D0A6E2520500D533E20A2264
:103C00000C929A0500D5FEE1DA0500D55FE25A066E
:103C100000D52BE20B9A11001A0600D481E204C9E8
:103C20008C4612B2D11750184840614680B20B91B1
:103C30000593434604930C9BD20F03940293019285
:103C4000009032004B4639005046FFF75DFA6C1C7D
:103C500006001EE780239B0068781A43013549E778
:103C60006878682800D15EE1802301351A4341E776
:103C700068786C2800D15BE180235B001A43013532
:103C800038E7462800D112E107210B9B0492073345
:103C900042468B431900029403920CC9504600928D
:103CA00001930B9132004B463900FFF7F3FC6C1C7B
:103CB0000600EEE60B9B02CB0B910D93002C00D07F
:103CC000C9E00B789C46002B00D133E202235B4213
:103CD0000B990133C8180B0002E0984200D12DE186
:103CE000597801330029F8D10B995B1A0C93802382
:103CF0001100DB0019400E911A4203D00C9BA34225
:103D000000D90C940223190011400F91134200D1E5
:103D100054E16046002800D13BE10B9B32009E1B22
:103D20004346AB46B8460E9D57460B93B246260017
:103D300000E02200002D04D0731E002E00D101E10E
:103D40001E004B464146541CB8475346185D002898
:103D5000EFD10B9B5D46BA46A346474698460F9B5C
:103D6000002B00D014E10D9B5E466C1C0B9390E67B
:103D7000731C984632004B4639002520D0474646F2
:103D80006C1C86E64D3A0010A84F0020280E051046
:103D90006C0E0510B80E05100B9B0394984621235A
:103DA0001A43193B049308330293002305924246B9
:103DB000019308CA39009046009332004B465046A2
:103DC000FFF7A2F9434606006C1C0B9361E69307CC
:103DD00000D4BEE00B9B320001CB39009B46C0B241
:103DE0004B46D0474346741C4644012B00D84DE156
:103DF000A846554622004B46013439002020A847EA
:103E0000B442F7D1AA465B4645460B936C1C40E68C
:103E1000CE4B20789A4600239846002800D02DE605
:103E2000002486E60100A00000190133400040187C
:103E3000197830380400080030380928F3D9080010
:103E40001D0049E60B9BA87810CB0235E143C9174A
:103E50000C400B9340E60B9B1B789C46002B00D13B
:103E600067E1631E34E7202301009943472904D109
:103E700080231B011A4302239843452801D12023A4
:103E80001A4307210B9B0492073342468B431900C8
:103E9000029403920CC95046009201930B91320098
:103EA0004B463900FFF7F8F96C1C0600F1E52023BA
:103EB0001A43E9E610230C930C23110099430B00DD
:103EC00052052DD4692800D19BE6642800D198E6DC
:103ED0008022180092001040134200D0E6E0DA057C
:103EE00000D512E10B985A0600D5C8E01A0600D496
:103EF00022E104C81204120C0B900593434604936C
:103F00000C9B0394029300230092019399E60C23E7
:103F10001100994314330B4310210C915205D7D54E
:103F200001229343CEE7C023A8781A430235E1E586
:103F3000C0239B00A8781A430235DBE50B9BC31A0C
:103F40000C93D4E60B9B5D46BA469346474698468B
:103F500005E74346012B00D8F3E0741E4444A8460D
:103F6000554632004B46013639002020A847A6426C
:103F7000F7D1AA4645460B9B220001CB3900984653
:103F8000C0B24B46D0474346661C0B936C1C80E581
:103F90005E460C9A904534D943469B199B1AA84615
:103FA0001C00554632004B46013639002020A847F8
:103FB000A642F7D1AA46A3464546D4E60C9A531C1E
:103FC000904500D8BBE043469B199B1A9B4653463D
:103FD000A2465C46AB461D0032004B460136390016
:103FE0002020A847A642F7D1434601330C930B9BF0
:103FF00054461B78AA469C465D466046002800D081
:104000008BE6B346AFE6082107208C460B9A0732B1
:104010008243944405CA0893434607930C9B614628
:10402000049300230593D30F0293D3171093119396
:104030000B910694109B119C190041401291210094
:10404000514013911299139AC91AA24113000A0000
:1040500000920193390032004B465046FFF7B0F80A
:104060006C1C060015E50A220C9259E70B9A01CA4E
:104070009446FF226146024010000B91D8E504C827
:104080009446FF2261460B900A4036E75B462600C5
:104090000B936C1CFDE408230C9313001A00642896
:1040A00000D009E75A0500D4ABE539E70893434649
:1040B00007200B9A07930C9B07328243049300233B
:1040C00011000694059302930CC90B91C0E70B9A5B
:1040D000110004C9059343468B4604930C9B03943B
:1040E0000293D30F0193D317D2185A4000924B4634
:1040F000320039005046FFF707F85B4606000B9385
:104100006C1CC6E402230C93C7E705934346049353
:104110000C9B0B9A03940293019008CA9346009358
:10412000E5E704C98C46D1175018484061460B9109
:104130007EE500230C93DAE504C80B90DDE60C93D2
:104140005BE7340017E70A220C92A7E7992E0010CC
:104150000EB4012210B585B007AC08CC0100009464
:10416000524204480394FFF771FC05B010BC08BC30
:1041700003B01847912E001000B583B000931300D0
:104180000A0001000248FFF761FC03B000BDC04611
:10419000912E001000B585B003910121029000938B
:1041A000034813004A4202A9FFF750FC05B000BDC6
:1041B0003D3A00100FB410B50C4984B006AA08CAE5
:1041C0000C680392002C0BD0009201220848524246
:1041D00002A9A047012004B010BC08BC04B01847D5
:1041E000180001F005FA0020F5E7C046A84F0020AE
:1041F0002D3A001010B5094A0300146884B0002C51
:1042000008D0012200910648524203A9A04701208C
:1042100004B010BD01F0ECF90020F9E7A84F002030
:104220002D3A001001480421014B1847B01D002011
:104230006D420010014B5B6818470000B01D002064
:10424000014B9B6818470000B01D0020142310B5D7
:104250000100188804331B88984710BD162310B539
:104260000100188802331B88984710BDF8B54746EF
:10427000CE4680B50F1E19D014239946043304008E
:104280000025012698464B461888434621681B881E
:10429000984701C4431E9841013540420640AF4251
:1042A000F1D13000C0BCB946B046F8BD0126F8E7F0
:1042B000124A936F9B0815D29066D166002905D0EB
:1042C000FFE7FFE7FFE7516F106F704704B58021EC
:1042D0000906C2175140002800D0C8434CF04CF9E1
:1042E000002104BDF0B5146E556E576F166FFFF7C1
:1042F000E3FF1466556657671667F0BD000000D0EF
:10430000114A936F9B0813D210665166002905D09D
:10431000FFE7FFE7FFE7516F106F704704B5002814
:1043200001D00020C0434CF027F9002104BDC04655
:10433000F0B5146E556E576F166FFFF7E5FF1466F4
:10434000556657671667F0BD000000D094464A4A8C
:10435000926F9208624601D228E0C046F0B5464E00
:10436000346E756E776F366F00F020F89446424ACF
:1043700014665566576716676246F0BD94463E4A16
:10438000926F9208624601D254E0C046F0B53A4EB0
:10439000346E756E776F366F00F04CF89446364A7F
:1043A00014665566576716676246F0BD002B24DB1E
:1043B00011D000293EDA00B5C943404200D1013195
:1043C00000F038F8C943404200D10131DB4352428A
:1043D00000D1013300BD002AEBD1002801D1002912
:1043E00005D00020C90FC90701D1C043410800B55D
:1043F0004CF072F80022002300BD00B500290ADB52
:10440000DB43524200D1013300F014F8C94340426B
:1044100000D1013100BDC943404200D10131DB432D
:10442000524200D1013300F005F8DB43524200D183
:10443000013300BD002923D1002B18D1002A0CD054
:10444000BC460D4F38667A6600210023FFE7FFE780
:10445000FFE77A6F386F67467047002801D007483A
:10446000010000B54CF038F80022002300BD020026
:104470000B00002000217047000000D0FFFFFFFF6D
:10448000002B00D0BFE0130C28D1002AE7D080B465
:10449000114F39667A66FFE7FFE730B4040C7B6F93
:1044A000396F1B0423433B667A66FFE7FFE7FFE7AC
:1044B000C04684B27B6F3D6F1B0423433B667A6624
:1044C000FFE7FFE7C04600232C042D0C7A6F386FFE
:1044D00000196941B0BC7047000000D0F0B59446A7
:1044E0000025140E01D112020835140F01D112015A
:1044F0000435940F01D192000235D40F01D152003E
:104500000135D40B0134254F7C66254C3C660E0CDE
:1045100093B2FFE7FFE7FFE73C6F6643360C770394
:10452000BE467343DF0B5B04C01AB941130C7343DF
:10453000DB18C91ACE086643360CB64493B27343EF
:104540001F0F1B01C01AB941130C73431F0B1B052E
:10455000C01AB941860D8F023E436643360C092DC1
:1045600024DB520A7243801A7703460A6643360CEC
:1045700016235B1BDE40DF40BF1964466643821B87
:104580007046043506330100D940A840C01900D355
:104590000131A24206D20023F0BD0000000000D08D
:1045A000FFFFFFFF121B0130F3D3F1E709277F1B49
:1045B000FE406446A2B27243801A00D20139220C36
:1045C0007243130C1204821A99410B007046043591
:1045D00013370100F940A840801900D30131002BA6
:1045E00002D1A2420AD2F0BD013000D30131121B28
:1045F000FAD2013BF8D1A24200D2F0BD013000D383
:104600000131121BF7E7F0B51C0C00D080E00CB4B0
:1046100000251C0A04D11B02160E33431202083572
:104620001C0B04D11B01160F3343120104359C0BE4
:1046300004D19B00960F334392000235DC0B02D16C
:1046400092185B4101351C00971864410134464FB4
:104650007C66464C3C660E0CFFE7FFE7FFE7C04672
:104660003C6F6643360C7703BE4697B27743C01B58
:1046700000D20139C01B00D201399FB27743C91B58
:10468000C91B170C77437E04FF0B801BB941CE0872
:104690006643360C0C2D33DBB644120B1F053A4330
:1046A0001B0B97B27743C01B00D201399FB27743EF
:1046B000C91B170C77433E043F0C801BB941860D84
:1046C0008F023E43664329277F1BFE400C3D774601
:1046D000AF40BF1930BCA2B2ABB272437343801A71
:1046E0009941220C7243130C1204801A9941020062
:1046F0000B000137001BA941F9D2781E0021F0BD43
:104700000C277F1BFE4077467F0BAF40FF19E0E789
:1047100000245D1C07D0144F7D663966FFE7FFE774
:10472000FFE7FFE73C6F95B29EB265436643401BCF
:10473000B141150C1E0C6543664336042F0C3E43F5
:104740002D04401BB141994204D202000B0020000D
:104750000021F0BD01D19042F7D3801A9941013474
:104760009942F2D3F6E70000000000D0FFFFFFFF00
:1047700048404140484018B41B4B5B68FC460193DD
:1047800008BD04DF734A001018B4174B1B68FC46C1
:10479000019308BD00DF7D4A00109446134A926FD2
:1047A000920809D2624618B40F4BDB68FC460193AD
:1047B00008BD0CDF354D00100C4AF0B5146E556E77
:1047C000576F166F6246FFF7EEFF084A146655668C
:1047D00057671667F0BD18B4034B9B68FC460193FE
:1047E00008BD08DFD94B0010D84F0020000000D0D2
:1047F000FFB550404240504059404B40594000E0C6
:10480000FFB5154F4C00640D03D0BC4204D10C031E
:1048100014D80020090D09055C00640D03D0BC42CA
:1048200004D11C030AD800221B0D1B0501264B4096
:1048300009D44B4003D58B4200D18242FFBD99423F
:10484000FCD19042FFBD0B43DB1803431343F5D06B
:10485000C9434918FFBD0000FF07000000B5FFF77E
:10486000CFFF01D0002000BD012000BD00B5FFF743
:10487000C7FF804100BDC04600B5FFF7C1FF01D9A9
:10488000002000BD012000BD00B5FFF7B1FF01D938
:10489000002000BD012000BD00B5FFF7A9FF804149
:1048A00000BD012040054A00121804D85A00121811
:1048B00001D8002070470120704700207047000099
:1048C0000021002805D17047C1174840401AFAD08E
:1048D000C90713B5064B1B6898470CBC441CA24083
:1048E0001005120B0349091B09051943114310BD9B
:1048F000D85000201F04000010B54C00620D80232A
:10490000D218DB00D21A5B057E2A10DD9E3A13DA3C
:10491000CC170903490819435242D14064000134BD
:104920001532202A05DAD0400843604310BD00202C
:1049300010BD0846604310BDC80FC018013810BD37
:1049400018B4044B5B6AFC46019308BD24DFE54EB6
:1049500000100000D84F002018B4044BDB6DFC465B
:10496000019308BD5CDFF14F00100000D84F00201C
:10497000C94211D300B549004908002200F018F8D7
:10498000002904D4002240428A41114600BD802102
:104990000906002000BD000018B4044BDB6EFC4685
:1049A000019308BD6CDFF34E00100000D84F0020CB
:1049B00018B4044B9B6FFC46019308BD78DF0F4F82
:1049C00000100000D84F002018B4044BDB6FFC46E9
:1049D000019308BD7CDF7D4F00100000D84F002000
:1049E000132370B51C78012C15D010DD0F48FFF78C
:1049F00035FC0F4D01008022280000F07DFC022CC8
:104A000006D00C48FFF722FC0B4B186070BD084D18
:104A10000A4AAA64F5E7064D084A29002B008031AE
:104A200004C38B42FCD1AA64EBE7C04653440000A8
:104A3000D84F00204C330000D8500020414A0010CD
:104A400007B5604601880A0A0230DF2AFAD1C9B2E6
:104A5000820804D3028840880004104300E0006804
:104A6000014A5050039007BDD84F00200FB403BC3B
:104A70000CBCF0B50124E407634000E0F0B50C0D78
:104A8000CF0F661E3605891B640503D3C943404218
:104A900000D30131640D03D0661CF60A07D0E41B75
:104AA00000207F00791C89078912803C24031D0D9A
:104AB000DF0F6E1E36059B1B6D0503D3DB43524291
:104AC00000D301336D0D03D06E1CF60A07D0ED1B29
:104AD00000227F007B1C9B079B12803D2D032F1B18
:104AE000661B58D4A446202E46DA20371400BC405A
:104AF0001D00BD40F24033412A4380185941CB0F7D
:104B000005D0C943C043002264425041514162462E
:104B10004D0D28D10D0D07D100281FD0241940417B
:104B20004941013A0D0DF9D0640006D3013000D39C
:104B30000131002C01D140084000013A0BD4941CF3
:104B4000E40A04D112051144DB071944F0BDD9076A
:104B5000204B194300E0D9070020F0BD0029DDD12A
:104B6000002CDBD1F0BD0132C6074008CD07284339
:104B70004908002EE1D0D9E73C2E29DA203E403703
:104B80001400BC4000D00124F24014431A00BB4082
:104B90001C43D317ACE7AC46202F08DA20360400BC
:104BA000B4400D00B540F84039412843A5E73C2FFB
:104BB0000CDA203F40360400B44000D00124F84015
:104BC00004430800B1400C43C117EAE71000190084
:104BD000002494E70000F07FF0B50C0D661E36054A
:104BE000891BE60A6405640D02D0651CED0A04D039
:104BF000002001210905803C2403A4461C0D671EEA
:104C00003F05DB1BE70A6405640D02D0651CED0A55
:104C100004D0002201231B05803C24037740644418
:104C200097B484B296B27443070C7E43150C6F435D
:104C300080B26843361802D3012000043F183004C4
:104C4000350C00197D41844688B29AB250430C0C51
:104C500062431F0C7C438EB27E43921902D301261D
:104C60003604A4191604170C3618674101BC81B22A
:104C70009AB25143040C62431B0C5C4380B258430C
:104C8000121802D30120000424181004130C401839
:104C900063412D185E410020474106BC88B293B2A3
:104CA00058430C0C6343120C544389B251435B18B4
:104CB00002D301210904641819041A0C091862416D
:104CC0006D1856410020474118BCF902720D11437E
:104CD000F0026A0D1043ED020A0D03D16D19404137
:104CE0004941013B124E9B1B7600B3420ED26D0030
:104CF00007D30130002671416646354301D1400893
:104D000040001B05C918E4072144F0BD0BDA01334C
:104D100006D1013004D101314F0D01D04908F2E72D
:104D2000E1070020F0BD013631050020EBE700006F
:104D3000FF030000F0B51C0D671E3F05DB1BE70AF3
:104D40006405640D02D0661CF60A04D0002201231B
:104D50001B05803C2403D0252D060026F6432E6635
:104D60001E096E66CE0FF619B44649004F0D02D0EB
:104D70007E1CF60A03D000200021403F3F033E1B6B
:104D8000B600B444013F7F05C91B49082E6F0136A8
:104D900076089C02950D25437543ED137543AD13BD
:104DA00001356D10F603761B0CB4CC02450D2C4377
:104DB000A2B2B3B25A43270C7B43350C6F43A4B263
:104DC0006C431B1902D3012424043F191C041D0C3D
:104DD000A4187D4124196D41009A91B2ACB261438F
:104DE000170C7C432B0C5F4392B25A43A41802D396
:104DF00001221204BF182204230C52187B41019C8B
:104E00006C431B19520ED9010A434401A01A81B206
:104E1000B2B2514303145A43360C734387B27743FB
:104E2000D617D21900277E4136049B191704160C99
:104E30007F185E417316ED18F3010026803375412B
:104E4000A90F06D16400690AE8055B0A184309D274
:104E50002FE00422944480337541A90AA8059B0AD7
:104E6000184326D3404149412404009A019B0D0078
:104E70005543641B4343E41A95B286B27543170C3D
:104E80007E43030C5F4392B25A43B61802D3012209
:104E90001204BF183204330C52197B4152429C4118
:104EA000002C02D40022013051414008CA071043AF
:104EB000490802B06246D7079210084BD218084B37
:104EC0009A4203D212058918C919F0BD0020002AA0
:104ED00001DC3900F0BD01331905F5E7FD030000E1
:104EE000FE070000002200B5203200F010F8080094
:104EF00000BD002200B500F00CF8CA179A4200D19C
:104F000000BDD8430121C907414000BD00220B1557
:104F10000AD410B5944600F0A7F81414013400DA4E
:104F20000021CB17144C2047002000217047624419
:104F3000343A0CD40C2A07DA0400914090405242D3
:104F40002032D440214310BDD843D94310BD203274
:104F500007D40C469440524220321141D0402043A5
:104F600010BD0800C917203203D45242203210412C
:104F700010BD1800190010BD2F4F00104A00520D2F
:104F8000144BD21A13DDFF2A1EDAD205CB0FDB0732
:104F90001A43C300400F0903490A084310435B004A
:104FA00001D301D0013070474308FBD2704702D0D3
:104FB000C80FC00770470A0312130132F8D1420F1D
:104FC000072AF5D1012200E0FF22C80F0002801855
:104FD000C00570478003000000210A00002104E0A2
:104FE00000210A00C11704E00022002306E0C046A9
:104FF0000022CB1758405940C01A994130B5184C7F
:10500000A21A002903D1010010D00020203A4C152B
:1050100012D104D2013A001849414C0DFAD3114C77
:10502000A24204D212058918DB07C91830BDD24349
:10503000520D00200021F5E703D4013A0018494140
:10504000FBD50B324405C00A4D052843C90A64004C
:1050500003D0002460416141E1E7E0D34408F8E770
:1050600032040000FE0700000A0DCC0F531E1B0582
:10507000C91A520503D3C943404200D30131520D2E
:1050800003D0531CDB0A07D0121B00206400611CF4
:1050900089078912803A1203014BD21A7047000027
:1050A000FF03000051434343C9188C46110C83B2DF
:1050B0004B4310B4040C614392B280B2504362433C
:1050C0001C041B0C001910BC59411304120CC0180D
:1050D00051416144704700004840414048400E4BF8
:1050E0005B6818470C4B1B6818470C4A936F9B086A
:1050F00002D2094BDB681847F0B5146E556E576F36
:10510000166FFFF7F6FF054A146655665767166770
:10511000F0BD014B9B681847DC500020000000D018
:1051200007B548404140484001E0C04607B542004D
:10513000120E03D0FF2A03D1420218D8C00DC005B9
:105140004A00120E03D0FF2A03D14A020FD8C90D1C
:10515000C9050122414005D4414001D5814207BD26
:10516000884207BD0143491801D0C043001807BD5C
:1051700000B5FFF7DBFF01D0002000BD012000BD1E
:1051800000B5FFF7D3FF01D9002000BD012000BD0D
:1051900001231B064200D21804D84A00D21801D8B5
:1051A0000020704701207047491A002808D108469E
:1051B00070470000C10FC90700D54042002817D032
:1051C000F44603B40B4B1B68984706BC81409E38DD
:1051D0004042803107D20B0607D04900490AC0057A
:1051E0001043084360470130F8E7490A8902F5E7B0
:1051F00070470000D8500020014B5B6A1847000040
:10520000DC500020132310B510481C78FFF726F857
:105210000100012C0AD003DD80220D4800F06CF85B
:105220000C48FFF713F80C4B186010BD084C5422C3
:10523000200000F061F823002100084A5433803137
:1052400004C38B42FCD12262E261E9E753460000CD
:10525000DC5000204C330000D85000206152001078
:1052600007B5604601880A0A0230DF2AFAD1C9B2BE
:10527000820804D3028840880004104300E00068DC
:10528000014A5050039007BDDC50002010B50400C7
:105290003DF0E0FE002804D0034B04199C4200D8E6
:1052A00010BD0248FDF7D6FD00000420581005107F
:1052B00010B50C003EF094FA002804D0034B0419FA
:1052C0009C4200D810BD0248FDF7C4FD0000042038
:1052D0005810051010B53DF0C7FE10BD014804215F
:1052E000014B1847C01D00206D420010014B1B6888
:1052F00018470000C01D0020014B5B6818470000E4
:10530000C01D002010B5FFF7C1FF10BD10B5FFF79D
:10531000BDFF10BD10B5FFF7DDFF10BD10B5FFF7E5
:10532000D9FF10BD10B5FFF7D5FF10BD030010B5B4
:10533000080011001B68984710BDC046F8B55746D5
:105340004E464546DE4698461A4BE0B59A461A4BFD
:1053500007000E0093469946184D53461C68002CD2
:1053600003D115E02469002C12D02B68002B01D04A
:10537000A342F7D1A368002BF4D03100380098473E
:105380000028EFDDF0BCBB46B246A946A046F8BDFA
:105390004B465B6A984508D84A46926A5A4501D2FC
:1053A000984502D001204042ECE701200021FCF7A3
:1053B000B5FFD2E7904B0020004005409C4B0020F9
:1053C000F0B546464F46D6468046C0B50E00171E7D
:1053D0003FDD4B1E9946214B0125002400209A46B3
:1053E0000DE04B461B5D0D3B5A425341325DDBB233
:1053F0000A2A0BD02B00013401359F421ADD002C04
:10540000EFD14346325D1B7D0A2AF3D1002BF1D147
:10541000A04204DA4346211A1B68301898474346D5
:1054200050461B6802219847013428002B000135A3
:105430009F42E4DC874204DD4346391A1B6830187A
:105440009847F619013E33780D3B5A425341424684
:105450001375E0BCBA46B146A846F0BDC4100510AD
:1054600010B50B00417D002903D01900FFF7A8FFFC
:1054700010BD046811001800A047F9E7F0B5C64652
:10548000144B06001C6800B5002C19D0031D98466B
:10549000114F02E02469002C12D02568002DF9D0AC
:1054A0003B68002B01D0A342F4D1637D3268002B0E
:1054B0000BD020004146FFF783FF2469002CECD17C
:1054C0000023336080BCB846F0BD11004046A847B9
:1054D000E0E7C046904B00209C4B002070B50C00CC
:1054E00009680500802904D04B1C236064182571CD
:1054F00070BD2000FFF7C2FF2168F5E7F0B5DE467A
:1055000057464E464546E0B585B017001C000600DC
:105510000D00FCF7F9FE0023274A12184B41002B1F
:1055200045DB264908008A464BF06EF801906B1C5B
:1055300003D130003FF0A6FC0500002C30D1204BF9
:105540009946204B1C68002C20D01F4B98460A23FC
:105550009B4602E02469002C18D02368002BF9D068
:1055600043461B68002B01D0A342F3D12A0031002F
:105570002000C847002FEDD05A4602AB2000DA7158
:10558000D91D0122C8472469002CE6D1019B002BBC
:1055900009D105B0F0BCBB46B246A946A046F0BD55
:1055A0000A4B9946CDE750464AF08EFFF1E70122BB
:1055B000074B5242B5E7C04640420F000029002089
:1055C00061540010904B00209C4B00202D53001084
:1055D000FFFFFF7F10B582B06B4604000022D81D8C
:1055E000012100230470FFF789FF200002B010BDE5
:1055F00070B504003FF046FC0023010005000122C5
:105600002000FFF77BFF064B1C68002C06D0636868
:10561000002B00D098472469002CF8D1280070BDD9
:10562000904B0020030010B508001100002B05D19D
:10563000044B1A685B68FFF781FE10BD01204042F1
:10564000FBE7C046880D05100300013B10B50800BC
:105650001400012B06D8002300222100FFF74EFF83
:10566000200010BD01204042FBE7C046012040421F
:105670007047C046012040427047C046012040426A
:105680007047C0460300022200209A424041704702
:105690000A4A1368002B05D10CE01A001B6910326E
:1056A000002B07D09842F8D1002902D1036913607A
:1056B000016170470029FCD01060FAE7904B002090
:1056C000F0B5A3B004000D00FCF71EFE0023184A3D
:1056D00012184B41002B27DB164E30004AF094FF86
:1056E00000230700019322002B00134801A9FEF7B5
:1056F00051FD019B0500002B02D001A8FFF7BEFE63
:105700000E4B1C68002C06D06368002B00D0984715
:105710002469002CF8D1002F02D1280023B0F0BD5D
:1057200030004AF0D1FEF8E70122054B5242D3E7A0
:1057300040420F0000290020DD540010904B002053
:10574000FFFFFF7F0FB400B583B004A901C9019129
:10575000FFF7B6FF03B008BC04B0184710B507F058
:10576000B3FD00F0DBF9012010BDC0467047C04614
:105770000022014B1A7070471C5200204B79002008
:10578000FF2B0BD18B79002B08D1CB79012B05D1C5
:10579000082A03D98A78024B09301A707047C0462C
:1057A0001C5200200120704770B5012909D115490C
:1057B0005379107909781B0203430020994202D0E3
:1057C00070BD0120FCE75378012B08D0022BF7D1E4
:1057D000002064220021FDF727FA0120F0E79478E9
:1057E000D278050012021443D20502D5620A934012
:1057F0001D000548FEF72AFD7F21030021402800F7
:105800009847C0461C5200205542000001230370F7
:1058100000487047C810051048780B788A78000255
:105820001843120410439622CB7810B51B0603438D
:10583000D200934200D010BD0348FEF707FD0021BF
:10584000030008009847C04655420000024B18600C
:10585000024B19607047C046EC4A0020F44A002011
:1058600010B5024B1878FBF7D5FE10BD1D52002075
:1058700070B5040000200E0001F060FA002835D059
:10588000002001F073FA002830D0FCF73DFD002322
:10589000184A12184B41002B24DB174D28004AF000
:1058A000B3FE002822D0002001F048FA00280BD1D6
:1058B000012000210324404200F0BAFC6442280089
:1058C0004AF002FE200070BD002001F04FFA0028CF
:1058D000EED021003200002001F054FA041EEED177
:1058E000033CECE70122054B5242D6E70324644215
:1058F000E8E7C04640420F00E0510020FFFFFF7F75
:10590000F8B5DE46574680B505000C00FCF7FCFCF8
:105910000023364A12184B41002B5ADB3449080049
:105920008A464AF071FE002803D1C0BCBB46B2468D
:10593000F8BD002001F002FA00284ED00026002C0D
:1059400043DD2C4B9B4614E0A919002001F06AFAB4
:10595000070001200021404200F06AFC002001F015
:1059600025FAFCF7D1FC234BF61918605960B442B4
:105970002BDD002001F070FAA71B0200B84200DD09
:105980003A00002AE0D101200021404200F050FC02
:10599000002001F00BFA002001F0D0F9002814D00B
:1059A000002001F059FA0028E1D1FCF7ADFC5B467C
:1059B0000F001A685B68002184460F4812184B419B
:1059C0009F4202D8D3D19445D1D950464AF07CFDAC
:1059D000ABE70122094B5242A0E700200021054B12
:1059E0001860596050464AF06FFD9EE740420F0034
:1059F000E0510020402A002020A10700FFFFFF7F88
:105A0000114B70B51A68002A1AD0EFF3108172B6E4
:105A100010680028FCD0BFF35F8F00220B4859604C
:105A200002701B68BFF35F8F1A6081F31088002437
:105A30000025074B1878FBF7EDFD2900200070BD0D
:105A4000FA240025A400F4E7B44F00201E520020E1
:105A50001D52002010B5244C84B0002120004AF0D3
:105A6000A3FD00281CD1214B1A68002A16D0EFF3A1
:105A7000108172B610680028FCD0BFF35F8F01243C
:105A80001B48596002781B68D2B20470BFF35F8F65
:105A90000020186081F31088002A0AD004B010BDDD
:105AA00001200021404200F0C3FB20004AF00CFD21
:105AB000F4E7FCF789FA0400FCF726FCFA2200233D
:105AC000920012184B41002B09DB012102910021A9
:105AD0000191084920000091FCF77AFADEE70122E3
